{
  "_format": "hh-sol-artifact-1",
  "contractName": "MemoryToken",
  "sourceName": "contracts/MemoryToken.sol",
  "abi": [
    {
      "inputs": [],
      "stateMutability": "nonpayable",
      "type": "constructor"
    },
    {
      "anonymous": false,
      "inputs": [
        {
          "indexed": true,
          "internalType": "address",
          "name": "account",
          "type": "address"
        },
        {
          "indexed": true,
          "internalType": "address",
          "name": "operator",
          "type": "address"
        },
        {
          "indexed": false,
          "internalType": "bool",
          "name": "approved",
          "type": "bool"
        }
      ],
      "name": "ApprovalForAll",
      "type": "event"
    },
    {
      "anonymous": false,
      "inputs": [
        {
          "indexed": true,
          "internalType": "address",
          "name": "previousOwner",
          "type": "address"
        },
        {
          "indexed": true,
          "internalType": "address",
          "name": "newOwner",
          "type": "address"
        }
      ],
      "name": "OwnershipTransferred",
      "type": "event"
    },
    {
      "anonymous": false,
      "inputs": [
        {
          "indexed": true,
          "internalType": "address",
          "name": "operator",
          "type": "address"
        },
        {
          "indexed": true,
          "internalType": "address",
          "name": "from",
          "type": "address"
        },
        {
          "indexed": true,
          "internalType": "address",
          "name": "to",
          "type": "address"
        },
        {
          "indexed": false,
          "internalType": "uint256[]",
          "name": "ids",
          "type": "uint256[]"
        },
        {
          "indexed": false,
          "internalType": "uint256[]",
          "name": "values",
          "type": "uint256[]"
        }
      ],
      "name": "TransferBatch",
      "type": "event"
    },
    {
      "anonymous": false,
      "inputs": [
        {
          "indexed": true,
          "internalType": "address",
          "name": "operator",
          "type": "address"
        },
        {
          "indexed": true,
          "internalType": "address",
          "name": "from",
          "type": "address"
        },
        {
          "indexed": true,
          "internalType": "address",
          "name": "to",
          "type": "address"
        },
        {
          "indexed": false,
          "internalType": "uint256",
          "name": "id",
          "type": "uint256"
        },
        {
          "indexed": false,
          "internalType": "uint256",
          "name": "value",
          "type": "uint256"
        }
      ],
      "name": "TransferSingle",
      "type": "event"
    },
    {
      "anonymous": false,
      "inputs": [
        {
          "indexed": false,
          "internalType": "string",
          "name": "value",
          "type": "string"
        },
        {
          "indexed": true,
          "internalType": "uint256",
          "name": "id",
          "type": "uint256"
        }
      ],
      "name": "URI",
      "type": "event"
    },
    {
      "inputs": [
        {
          "internalType": "address",
          "name": "poap",
          "type": "address"
        },
        {
          "internalType": "address",
          "name": "contributor",
          "type": "address"
        }
      ],
      "name": "addContributors",
      "outputs": [],
      "stateMutability": "nonpayable",
      "type": "function"
    },
    {
      "inputs": [
        {
          "internalType": "address",
          "name": "account",
          "type": "address"
        },
        {
          "internalType": "uint256",
          "name": "id",
          "type": "uint256"
        }
      ],
      "name": "balanceOf",
      "outputs": [
        {
          "internalType": "uint256",
          "name": "",
          "type": "uint256"
        }
      ],
      "stateMutability": "view",
      "type": "function"
    },
    {
      "inputs": [
        {
          "internalType": "address[]",
          "name": "accounts",
          "type": "address[]"
        },
        {
          "internalType": "uint256[]",
          "name": "ids",
          "type": "uint256[]"
        }
      ],
      "name": "balanceOfBatch",
      "outputs": [
        {
          "internalType": "uint256[]",
          "name": "",
          "type": "uint256[]"
        }
      ],
      "stateMutability": "view",
      "type": "function"
    },
    {
      "inputs": [
        {
          "internalType": "address",
          "name": "reader",
          "type": "address"
        },
        {
          "internalType": "address",
          "name": "poap",
          "type": "address"
        }
      ],
      "name": "canRead",
      "outputs": [
        {
          "internalType": "bool",
          "name": "",
          "type": "bool"
        }
      ],
      "stateMutability": "view",
      "type": "function"
    },
    {
      "inputs": [
        {
          "internalType": "address",
          "name": "writer",
          "type": "address"
        },
        {
          "internalType": "address",
          "name": "poap",
          "type": "address"
        }
      ],
      "name": "canWrite",
      "outputs": [
        {
          "internalType": "bool",
          "name": "",
          "type": "bool"
        }
      ],
      "stateMutability": "view",
      "type": "function"
    },
    {
      "inputs": [
        {
          "internalType": "address",
          "name": "to",
          "type": "address"
        }
      ],
      "name": "claimPayout",
      "outputs": [],
      "stateMutability": "nonpayable",
      "type": "function"
    },
    {
      "inputs": [
        {
          "internalType": "uint256",
          "name": "",
          "type": "uint256"
        },
        {
          "internalType": "uint256",
          "name": "",
          "type": "uint256"
        }
      ],
      "name": "contributors",
      "outputs": [
        {
          "internalType": "address",
          "name": "",
          "type": "address"
        }
      ],
      "stateMutability": "view",
      "type": "function"
    },
    {
      "inputs": [
        {
          "internalType": "uint256",
          "name": "id",
          "type": "uint256"
        }
      ],
      "name": "exists",
      "outputs": [
        {
          "internalType": "bool",
          "name": "",
          "type": "bool"
        }
      ],
      "stateMutability": "view",
      "type": "function"
    },
    {
      "inputs": [
        {
          "internalType": "address",
          "name": "account",
          "type": "address"
        },
        {
          "internalType": "address",
          "name": "poap",
          "type": "address"
        },
        {
          "internalType": "uint256",
          "name": "amount",
          "type": "uint256"
        },
        {
          "internalType": "bytes",
          "name": "data",
          "type": "bytes"
        }
      ],
      "name": "grantReadAccess",
      "outputs": [],
      "stateMutability": "payable",
      "type": "function"
    },
    {
      "inputs": [
        {
          "internalType": "address",
          "name": "account",
          "type": "address"
        },
        {
          "internalType": "address",
          "name": "poap",
          "type": "address"
        },
        {
          "internalType": "uint256",
          "name": "poapTokenId",
          "type": "uint256"
        },
        {
          "internalType": "bytes",
          "name": "data",
          "type": "bytes"
        }
      ],
      "name": "grantWriteAccess",
      "outputs": [],
      "stateMutability": "nonpayable",
      "type": "function"
    },
    {
      "inputs": [
        {
          "internalType": "address",
          "name": "account",
          "type": "address"
        },
        {
          "internalType": "address",
          "name": "operator",
          "type": "address"
        }
      ],
      "name": "isApprovedForAll",
      "outputs": [
        {
          "internalType": "bool",
          "name": "",
          "type": "bool"
        }
      ],
      "stateMutability": "view",
      "type": "function"
    },
    {
      "inputs": [
        {
          "internalType": "uint256",
          "name": "",
          "type": "uint256"
        },
        {
          "internalType": "address",
          "name": "",
          "type": "address"
        }
      ],
      "name": "memories",
      "outputs": [
        {
          "internalType": "uint256",
          "name": "",
          "type": "uint256"
        }
      ],
      "stateMutability": "view",
      "type": "function"
    },
    {
      "inputs": [],
      "name": "owner",
      "outputs": [
        {
          "internalType": "address",
          "name": "",
          "type": "address"
        }
      ],
      "stateMutability": "view",
      "type": "function"
    },
    {
      "inputs": [
        {
          "internalType": "address",
          "name": "",
          "type": "address"
        }
      ],
      "name": "payouts",
      "outputs": [
        {
          "internalType": "uint256",
          "name": "",
          "type": "uint256"
        }
      ],
      "stateMutability": "view",
      "type": "function"
    },
    {
      "inputs": [
        {
          "internalType": "uint256",
          "name": "",
          "type": "uint256"
        }
      ],
      "name": "poaps",
      "outputs": [
        {
          "internalType": "address",
          "name": "",
          "type": "address"
        }
      ],
      "stateMutability": "view",
      "type": "function"
    },
    {
      "inputs": [
        {
          "internalType": "uint256",
          "name": "",
          "type": "uint256"
        }
      ],
      "name": "prices",
      "outputs": [
        {
          "internalType": "uint256",
          "name": "",
          "type": "uint256"
        }
      ],
      "stateMutability": "view",
      "type": "function"
    },
    {
      "inputs": [],
      "name": "renounceOwnership",
      "outputs": [],
      "stateMutability": "nonpayable",
      "type": "function"
    },
    {
      "inputs": [
        {
          "internalType": "address",
          "name": "from",
          "type": "address"
        },
        {
          "internalType": "address",
          "name": "to",
          "type": "address"
        },
        {
          "internalType": "uint256[]",
          "name": "ids",
          "type": "uint256[]"
        },
        {
          "internalType": "uint256[]",
          "name": "amounts",
          "type": "uint256[]"
        },
        {
          "internalType": "bytes",
          "name": "data",
          "type": "bytes"
        }
      ],
      "name": "safeBatchTransferFrom",
      "outputs": [],
      "stateMutability": "nonpayable",
      "type": "function"
    },
    {
      "inputs": [
        {
          "internalType": "address",
          "name": "from",
          "type": "address"
        },
        {
          "internalType": "address",
          "name": "to",
          "type": "address"
        },
        {
          "internalType": "uint256",
          "name": "id",
          "type": "uint256"
        },
        {
          "internalType": "uint256",
          "name": "amount",
          "type": "uint256"
        },
        {
          "internalType": "bytes",
          "name": "data",
          "type": "bytes"
        }
      ],
      "name": "safeTransferFrom",
      "outputs": [],
      "stateMutability": "nonpayable",
      "type": "function"
    },
    {
      "inputs": [
        {
          "internalType": "address",
          "name": "operator",
          "type": "address"
        },
        {
          "internalType": "bool",
          "name": "approved",
          "type": "bool"
        }
      ],
      "name": "setApprovalForAll",
      "outputs": [],
      "stateMutability": "nonpayable",
      "type": "function"
    },
    {
      "inputs": [
        {
          "internalType": "address",
          "name": "poap",
          "type": "address"
        },
        {
          "internalType": "uint256",
          "name": "newPrice",
          "type": "uint256"
        }
      ],
      "name": "setPrice",
      "outputs": [],
      "stateMutability": "nonpayable",
      "type": "function"
    },
    {
      "inputs": [
        {
          "internalType": "string",
          "name": "newuri",
          "type": "string"
        }
      ],
      "name": "setURI",
      "outputs": [],
      "stateMutability": "nonpayable",
      "type": "function"
    },
    {
      "inputs": [
        {
          "internalType": "bytes4",
          "name": "interfaceId",
          "type": "bytes4"
        }
      ],
      "name": "supportsInterface",
      "outputs": [
        {
          "internalType": "bool",
          "name": "",
          "type": "bool"
        }
      ],
      "stateMutability": "view",
      "type": "function"
    },
    {
      "inputs": [],
      "name": "totalMemoryRegistered",
      "outputs": [
        {
          "internalType": "uint256",
          "name": "",
          "type": "uint256"
        }
      ],
      "stateMutability": "view",
      "type": "function"
    },
    {
      "inputs": [
        {
          "internalType": "uint256",
          "name": "id",
          "type": "uint256"
        }
      ],
      "name": "totalSupply",
      "outputs": [
        {
          "internalType": "uint256",
          "name": "",
          "type": "uint256"
        }
      ],
      "stateMutability": "view",
      "type": "function"
    },
    {
      "inputs": [
        {
          "internalType": "address",
          "name": "newOwner",
          "type": "address"
        }
      ],
      "name": "transferOwnership",
      "outputs": [],
      "stateMutability": "nonpayable",
      "type": "function"
    },
    {
      "inputs": [
        {
          "internalType": "uint256",
          "name": "",
          "type": "uint256"
        }
      ],
      "name": "uri",
      "outputs": [
        {
          "internalType": "string",
          "name": "",
          "type": "string"
        }
      ],
      "stateMutability": "view",
      "type": "function"
    },
    {
      "inputs": [
        {
          "internalType": "address",
          "name": "",
          "type": "address"
        },
        {
          "internalType": "uint256",
          "name": "",
          "type": "uint256"
        }
      ],
      "name": "used",
      "outputs": [
        {
          "internalType": "bool",
          "name": "",
          "type": "bool"
        }
      ],
      "stateMutability": "view",
      "type": "function"
    }
  ],
  "bytecode": "0x608060405260006008553480156200001657600080fd5b50604080516020810190915260008152620000318162000043565b506200003d3362000055565b6200028c565b6002620000518282620001bc565b5050565b600480546001600160a01b038381166001600160a01b0319831681179093556040519116919082907f8be0079c531659141344cd1fd0a4f28419497f9722a3daafe3b4186f6b6457e090600090a35050565b634e487b7160e01b600052604160045260246000fd5b634e487b7160e01b600052602260045260246000fd5b600281046001821680620000e857607f821691505b602082108103620000fd57620000fd620000bd565b50919050565b600062000114620001118381565b90565b92915050565b620001258362000103565b81546008840282811b60001990911b908116901990911617825550505050565b6000620001548184846200011a565b505050565b8181101562000051576200016f60008262000145565b60010162000159565b601f82111562000154576000818152602090206020601f85010481016020851015620001a15750805b620001b56020601f86010483018262000159565b5050505050565b81516001600160401b03811115620001d857620001d8620000a7565b620001e48254620000d3565b620001f182828562000178565b6020601f8311600181146200022857600084156200020f5750858201515b600019600886021c198116600286021786555062000284565b600085815260208120601f198616915b828110156200025a578885015182556020948501946001909201910162000238565b86831015620002775784890151600019601f89166008021c191682555b6001600288020188555050505b505050505050565b612ab6806200029c6000396000f3fe6080604052600436106101b55760003560e01c8063715018a6116100ec578063d37f7c961161008a578063f242432a11610064578063f242432a14610597578063f2e68606146105b7578063f2fde38b146105ca578063f3648ae6146105ea57600080fd5b8063d37f7c9614610518578063e985e9c51461052e578063edf2c3871461057757600080fd5b8063ad04dc3f116100c6578063ad04dc3f14610463578063bc31c1c11461049e578063bd85b039146104cb578063cb9ce96f146104f857600080fd5b8063715018a6146104105780638da5cb5b14610425578063a22cb4651461044357600080fd5b80632eb2c2d61161015957806354346b661161013357806354346b66146103605780636161854f1461038d57806361e4058f146103ad57806365bcfbe7146103e357600080fd5b80632eb2c2d6146102e45780634e1273f4146103045780634f558e791461033157600080fd5b80630286ae3f116101955780630286ae3f1461023f57806302fe53051461025f5780630e89341c1461027f578063203c3163146102ac57600080fd5b8062e4768b146101ba578062fdd58e146101dc57806301ffc9a714610212575b600080fd5b3480156101c657600080fd5b506101da6101d53660046118de565b61060a565b005b3480156101e857600080fd5b506101fc6101f73660046118de565b61065a565b6040516102099190611923565b60405180910390f35b34801561021e57600080fd5b5061023261022d36600461194c565b6106b4565b604051610209919061197d565b34801561024b57600080fd5b506101da61025a36600461198b565b61074f565b34801561026b57600080fd5b506101da61027a366004611ab1565b6107cb565b34801561028b57600080fd5b5061029f61029a366004611aec565b6107df565b6040516102099190611b63565b3480156102b857600080fd5b506101fc6102c7366004611b74565b600660209081526000928352604080842090915290825290205481565b3480156102f057600080fd5b506101da6102ff366004611c39565b610873565b34801561031057600080fd5b5061032461031f366004611d77565b6108bf565b6040516102099190611e3c565b34801561033d57600080fd5b5061023261034c366004611aec565b600090815260036020526040902054151590565b34801561036c57600080fd5b5061038061037b366004611e4d565b6109a7565b6040516102099190611e78565b34801561039957600080fd5b506102326103a836600461198b565b6109df565b3480156103b957600080fd5b506103806103c8366004611aec565b6007602052600090815260409020546001600160a01b031681565b3480156103ef57600080fd5b506101fc6103fe366004611e86565b600a6020526000908152604090205481565b34801561041c57600080fd5b506101da610a77565b34801561043157600080fd5b506004546001600160a01b0316610380565b34801561044f57600080fd5b506101da61045e366004611eba565b610a8b565b34801561046f57600080fd5b5061023261047e3660046118de565b600b60209081526000928352604080842090915290825290205460ff1681565b3480156104aa57600080fd5b506101fc6104b9366004611aec565b60056020526000908152604090205481565b3480156104d757600080fd5b506101fc6104e6366004611aec565b60009081526003602052604090205490565b34801561050457600080fd5b506101da610513366004611eed565b610a9a565b34801561052457600080fd5b506101fc60085481565b34801561053a57600080fd5b5061023261054936600461198b565b6001600160a01b03918216600090815260016020908152604080832093909416825291909152205460ff1690565b34801561058357600080fd5b5061023261059236600461198b565b610c0e565b3480156105a357600080fd5b506101da6105b2366004611f6c565b610c53565b6101da6105c5366004611eed565b610c98565b3480156105d657600080fd5b506101da6105e5366004611e86565b610e86565b3480156105f657600080fd5b506101da610605366004611e86565b610ebd565b610612610f32565b6001600160a01b0390911660009081527f54cdd369e4e8a8515e52ca72ec816c2101831ad1f18bf44102ed171459c9b4f8602090815260408083205483526005909152902055565b60006001600160a01b03831661068b5760405162461bcd60e51b815260040161068290612023565b60405180910390fd5b506000818152602081815260408083206001600160a01b03861684529091529020545b92915050565b60006001600160e01b031982167fd9b67a2600000000000000000000000000000000000000000000000000000000148061071757506001600160e01b031982167f0e89341c00000000000000000000000000000000000000000000000000000000145b806106ae57507f01ffc9a7000000000000000000000000000000000000000000000000000000006001600160e01b03198316146106ae565b610757610f32565b6001600160a01b0391821660009081527f54cdd369e4e8a8515e52ca72ec816c2101831ad1f18bf44102ed171459c9b4f8602090815260408083205483526009825282208054600181018255908352912001805473ffffffffffffffffffffffffffffffffffffffff191691909216179055565b6107d3610f32565b6107dc81610f5c565b50565b6060600280546107ee90612049565b80601f016020809104026020016040519081016040528092919081815260200182805461081a90612049565b80156108675780601f1061083c57610100808354040283529160200191610867565b820191906000526020600020905b81548152906001019060200180831161084a57829003601f168201915b50505050509050919050565b6001600160a01b03851633148061088f575061088f8533610549565b6108ab5760405162461bcd60e51b8152600401610682906120cf565b6108b88585858585610f68565b5050505050565b606081518351146108e25760405162461bcd60e51b815260040161068290612139565b6000835167ffffffffffffffff8111156108fe576108fe6119be565b604051908082528060200260200182016040528015610927578160200160208202803683370190505b50905060005b845181101561099f5761097285828151811061094b5761094b612149565b602002602001015185838151811061096557610965612149565b602002602001015161065a565b82828151811061098457610984612149565b602090810291909101015261099881612175565b905061092d565b509392505050565b600960205281600052604060002081815481106109c357600080fd5b6000918252602090912001546001600160a01b03169150829050565b6001600160a01b03811660009081527f54cdd369e4e8a8515e52ca72ec816c2101831ad1f18bf44102ed171459c9b4f860205260408120548190610a2490859061065a565b1180610a7057506001600160a01b03821660009081527f3e5fec24aa4dc4e5aee2e025e51e1392c72a2500577559fae9665c6d52bd6a316020526040812054610a6e90859061065a565b115b9392505050565b610a7f610f32565b610a896000611112565b565b610a96338383611171565b5050565b836001600160a01b0316836001600160a01b0316636352211e846040518263ffffffff1660e01b8152600401610ad09190611923565b602060405180830381865afa158015610aed573d6000803e3d6000fd5b505050506040513d601f19601f82011682018060405250810190610b11919061219a565b6001600160a01b031614610b375760405162461bcd60e51b8152600401610682906121f2565b6001600160a01b0383166000908152600b6020908152604080832085845290915290205460ff1615610b7b5760405162461bcd60e51b815260040161068290612236565b6001600160a01b03831660009081527f3e5fec24aa4dc4e5aee2e025e51e1392c72a2500577559fae9665c6d52bd6a3160205260408120549003610bc257610bc283611213565b6001600160a01b03831660009081527f3e5fec24aa4dc4e5aee2e025e51e1392c72a2500577559fae9665c6d52bd6a316020526040902054610c08908590600184611308565b50505050565b6001600160a01b03811660009081527f3e5fec24aa4dc4e5aee2e025e51e1392c72a2500577559fae9665c6d52bd6a3160205260408120548190610a6e90859061065a565b6001600160a01b038516331480610c6f5750610c6f8533610549565b610c8b5760405162461bcd60e51b8152600401610682906120cf565b6108b885858585856113ff565b6001600160a01b03831660009081527f54cdd369e4e8a8515e52ca72ec816c2101831ad1f18bf44102ed171459c9b4f8602090815260408083205483526005909152902054610ce8908390612246565b3414610d065760405162461bcd60e51b815260040161068290612299565b6001600160a01b03831660009081527f54cdd369e4e8a8515e52ca72ec816c2101831ad1f18bf44102ed171459c9b4f860205260408120549003610d4d57610d4d83611213565b6001600160a01b03831660009081527f54cdd369e4e8a8515e52ca72ec816c2101831ad1f18bf44102ed171459c9b4f86020908152604080832054835260098252808320546005909252822054610da5908590612246565b610daf91906122bf565b905060005b6001600160a01b03851660009081527f54cdd369e4e8a8515e52ca72ec816c2101831ad1f18bf44102ed171459c9b4f8602090815260408083205483526009909152902054811015610e40576001600160a01b0386166000908152600a602052604081208054849290610e289084906122d3565b90915550819050610e3881612175565b915050610db4565b506001600160a01b03841660009081527f54cdd369e4e8a8515e52ca72ec816c2101831ad1f18bf44102ed171459c9b4f860205260409020546108b89086908585611308565b610e8e610f32565b6001600160a01b038116610eb45760405162461bcd60e51b815260040161068290612340565b6107dc81611112565b6001600160a01b0381166000908152600a6020526040902054610ef25760405162461bcd60e51b815260040161068290612384565b6001600160a01b0381166000818152600a6020526040808220829055516108fc919081818181818888f19350505050158015610a96573d6000803e3d6000fd5b6004546001600160a01b03163314610a895760405162461bcd60e51b8152600401610682906123c6565b6002610a968282612474565b8151835114610f895760405162461bcd60e51b815260040161068290612591565b6001600160a01b038416610faf5760405162461bcd60e51b8152600401610682906125fb565b33610fbe818787878787611543565b60005b84518110156110a4576000858281518110610fde57610fde612149565b602002602001015190506000858381518110610ffc57610ffc612149565b602090810291909101810151600084815280835260408082206001600160a01b038e16835290935291909120549091508181101561104c5760405162461bcd60e51b815260040161068290612665565b6000838152602081815260408083206001600160a01b038e8116855292528083208585039055908b168252812080548492906110899084906122d3565b925050819055505050508061109d90612175565b9050610fc1565b50846001600160a01b0316866001600160a01b0316826001600160a01b03167f4a39dc06d4c0dbc64b70af90fd698a233a518aa5d07e595d983b8c0526c8f7fb87876040516110f4929190612675565b60405180910390a461110a818787878787611551565b505050505050565b600480546001600160a01b0383811673ffffffffffffffffffffffffffffffffffffffff19831681179093556040519116919082907f8be0079c531659141344cd1fd0a4f28419497f9722a3daafe3b4186f6b6457e090600090a35050565b816001600160a01b0316836001600160a01b0316036111a25760405162461bcd60e51b8152600401610682906126f4565b6001600160a01b0383811660008181526001602090815260408083209487168084529490915290819020805460ff1916851515179055517f17307eab39ab6107e8899845ad3d59bd9653f200f220920489ca2b5937696c319061120690859061197d565b60405180910390a3505050565b6001600160a01b03811660009081527f54cdd369e4e8a8515e52ca72ec816c2101831ad1f18bf44102ed171459c9b4f86020526040902054156112685760405162461bcd60e51b815260040161068290612738565b6008546112769060016122d3565b6001600160a01b03821660009081527f54cdd369e4e8a8515e52ca72ec816c2101831ad1f18bf44102ed171459c9b4f860205260409020556008546112bc9060026122d3565b6001600160a01b03821660009081527f3e5fec24aa4dc4e5aee2e025e51e1392c72a2500577559fae9665c6d52bd6a3160205260409020556008546113029060026122d3565b60085550565b6001600160a01b03841661132e5760405162461bcd60e51b8152600401610682906127a2565b33600061133a8561165f565b905060006113478561165f565b905061135883600089858589611543565b6000868152602081815260408083206001600160a01b038b168452909152812080548792906113889084906122d3565b92505081905550866001600160a01b031660006001600160a01b0316846001600160a01b03167fc3d58168c5ae7397731d063d5bbf3d657854427343f4c083240f7aacaa2d0f6289896040516113df9291906127b2565b60405180910390a46113f6836000898989896116aa565b50505050505050565b6001600160a01b0384166114255760405162461bcd60e51b8152600401610682906125fb565b3360006114318561165f565b9050600061143e8561165f565b905061144e838989858589611543565b6000868152602081815260408083206001600160a01b038c1684529091529020548581101561148f5760405162461bcd60e51b815260040161068290612665565b6000878152602081815260408083206001600160a01b038d8116855292528083208985039055908a168252812080548892906114cc9084906122d3565b92505081905550876001600160a01b0316896001600160a01b0316856001600160a01b03167fc3d58168c5ae7397731d063d5bbf3d657854427343f4c083240f7aacaa2d0f628a8a6040516115229291906127b2565b60405180910390a4611538848a8a8a8a8a6116aa565b505050505050505050565b61110a868686868686611765565b6001600160a01b0384163b1561110a5760405163bc197c8160e01b81526001600160a01b0385169063bc197c819061159590899089908890889088906004016127cd565b6020604051808303816000875af19250505080156115d0575060408051601f3d908101601f191682019092526115cd91810190612838565b60015b61162f576115dc612859565b806308c379a00361161557506115f0612874565b806115fb5750611617565b8060405162461bcd60e51b81526004016106829190611b63565b505b60405162461bcd60e51b815260040161068290612955565b6001600160e01b0319811663bc197c8160e01b146113f65760405162461bcd60e51b8152600401610682906129bf565b6040805160018082528183019092526060916000919060208083019080368337019050509050828160008151811061169957611699612149565b602090810291909101015292915050565b6001600160a01b0384163b1561110a5760405163f23a6e6160e01b81526001600160a01b0385169063f23a6e61906116ee90899089908890889088906004016129cf565b6020604051808303816000875af1925050508015611729575060408051601f3d908101601f1916820190925261172691810190612838565b60015b611735576115dc612859565b6001600160e01b0319811663f23a6e6160e01b146113f65760405162461bcd60e51b8152600401610682906129bf565b6001600160a01b0385166117ec5760005b83518110156117ea5782818151811061179157611791612149565b6020026020010151600360008684815181106117af576117af612149565b6020026020010151815260200190815260200160002060008282546117d491906122d3565b909155506117e3905081612175565b9050611776565b505b6001600160a01b03841661110a5760005b83518110156113f657600084828151811061181a5761181a612149565b60200260200101519050600084838151811061183857611838612149565b602002602001015190506000600360008481526020019081526020016000205490508181101561187a5760405162461bcd60e51b815260040161068290612a70565b6000928352600360205260409092209103905561189681612175565b90506117fd565b60006001600160a01b0382166106ae565b6118b78161189d565b81146107dc57600080fd5b80356106ae816118ae565b806118b7565b80356106ae816118cd565b600080604083850312156118f4576118f4600080fd5b600061190085856118c2565b9250506020611911858286016118d3565b9150509250929050565b805b82525050565b602081016106ae828461191b565b6001600160e01b031981166118b7565b80356106ae81611931565b60006020828403121561196157611961600080fd5b600061196d8484611941565b949350505050565b80151561191d565b602081016106ae8284611975565b600080604083850312156119a1576119a1600080fd5b60006119ad85856118c2565b9250506020611911858286016118c2565b634e487b7160e01b600052604160045260246000fd5b601f19601f830116810181811067ffffffffffffffff821117156119fa576119fa6119be565b6040525050565b6000611a0c60405190565b9050611a1882826119d4565b919050565b600067ffffffffffffffff821115611a3757611a376119be565b601f19601f83011660200192915050565b82818337506000910152565b6000611a67611a6284611a1d565b611a01565b905082815260208101848484011115611a8257611a82600080fd5b61099f848285611a48565b600082601f830112611aa157611aa1600080fd5b813561196d848260208601611a54565b600060208284031215611ac657611ac6600080fd5b813567ffffffffffffffff811115611ae057611ae0600080fd5b61196d84828501611a8d565b600060208284031215611b0157611b01600080fd5b600061196d84846118d3565b60005b83811015611b28578181015183820152602001611b10565b50506000910152565b6000611b3b825190565b808452602084019350611b52818560208601611b0d565b601f01601f19169290920192915050565b60208082528101610a708184611b31565b60008060408385031215611b8a57611b8a600080fd5b60006119ad85856118d3565b600067ffffffffffffffff821115611bb057611bb06119be565b5060209081020190565b6000611bc8611a6284611b96565b83815290506020808201908402830185811115611be757611be7600080fd5b835b81811015611c0b5780611bfc88826118d3565b84525060209283019201611be9565b5050509392505050565b600082601f830112611c2957611c29600080fd5b813561196d848260208601611bba565b600080600080600060a08688031215611c5457611c54600080fd5b6000611c6088886118c2565b9550506020611c71888289016118c2565b945050604086013567ffffffffffffffff811115611c9157611c91600080fd5b611c9d88828901611c15565b935050606086013567ffffffffffffffff811115611cbd57611cbd600080fd5b611cc988828901611c15565b925050608086013567ffffffffffffffff811115611ce957611ce9600080fd5b611cf588828901611a8d565b9150509295509295909350565b6000611d10611a6284611b96565b83815290506020808201908402830185811115611d2f57611d2f600080fd5b835b81811015611c0b5780611d4488826118c2565b84525060209283019201611d31565b600082601f830112611d6757611d67600080fd5b813561196d848260208601611d02565b60008060408385031215611d8d57611d8d600080fd5b823567ffffffffffffffff811115611da757611da7600080fd5b611db385828601611d53565b925050602083013567ffffffffffffffff811115611dd357611dd3600080fd5b61191185828601611c15565b6000611deb838361191b565b505060200190565b6000611dfd825190565b80845260209384019383018060005b83811015611e31578151611e208882611ddf565b975060208301925050600101611e0c565b509495945050505050565b60208082528101610a708184611df3565b60008060408385031215611e6357611e63600080fd5b600061190085856118d3565b61191d8161189d565b602081016106ae8284611e6f565b600060208284031215611e9b57611e9b600080fd5b600061196d84846118c2565b8015156118b7565b80356106ae81611ea7565b60008060408385031215611ed057611ed0600080fd5b6000611edc85856118c2565b925050602061191185828601611eaf565b60008060008060808587031215611f0657611f06600080fd5b6000611f1287876118c2565b9450506020611f23878288016118c2565b9350506040611f34878288016118d3565b925050606085013567ffffffffffffffff811115611f5457611f54600080fd5b611f6087828801611a8d565b91505092959194509250565b600080600080600060a08688031215611f8757611f87600080fd5b6000611f9388886118c2565b9550506020611fa4888289016118c2565b9450506040611fb5888289016118d3565b9350506060611cc9888289016118d3565b602a81526000602082017f455243313135353a2061646472657373207a65726f206973206e6f742061207681527f616c6964206f776e657200000000000000000000000000000000000000000000602082015291505b5060400190565b602080825281016106ae81611fc6565b634e487b7160e01b600052602260045260246000fd5b60028104600182168061205d57607f821691505b60208210810361206f5761206f612033565b50919050565b602e81526000602082017f455243313135353a2063616c6c6572206973206e6f7420746f6b656e206f776e81527f6572206f7220617070726f7665640000000000000000000000000000000000006020820152915061201c565b602080825281016106ae81612075565b602981526000602082017f455243313135353a206163636f756e747320616e6420696473206c656e67746881527f206d69736d6174636800000000000000000000000000000000000000000000006020820152915061201c565b602080825281016106ae816120df565b634e487b7160e01b600052603260045260246000fd5b634e487b7160e01b600052601160045260246000fd5b600060001982036121885761218861215f565b5060010190565b80516106ae816118ae565b6000602082840312156121af576121af600080fd5b600061196d848461218f565b600d81526000602082017f696e76616c69642070726f6f6600000000000000000000000000000000000000815291505b5060200190565b602080825281016106ae816121bb565b600a81526000602082017f70726f6f66207573656400000000000000000000000000000000000000000000815291506121eb565b602080825281016106ae81612202565b81810280821583820485141761225e5761225e61215f565b5092915050565b600f81526000602082017f696e76616c6964207061796d656e740000000000000000000000000000000000815291506121eb565b602080825281016106ae81612265565b634e487b7160e01b600052601260045260246000fd5b6000826122ce576122ce6122a9565b500490565b808201808211156106ae576106ae61215f565b602681526000602082017f4f776e61626c653a206e6577206f776e657220697320746865207a65726f206181527f64647265737300000000000000000000000000000000000000000000000000006020820152915061201c565b602080825281016106ae816122e6565b600b81526000602082017f7a65726f207061796f7574000000000000000000000000000000000000000000815291506121eb565b602080825281016106ae81612350565b60208082527f4f776e61626c653a2063616c6c6572206973206e6f7420746865206f776e6572910190815260006121eb565b602080825281016106ae81612394565b60006106ae6123e28381565b90565b6123ee836123d6565b81546008840282811b60001990911b908116901990911617825550505050565b600061241b8184846123e5565b505050565b81811015610a965761243360008261240e565b600101612420565b601f82111561241b576000818152602090206020601f850104810160208510156124625750805b6108b86020601f860104830182612420565b815167ffffffffffffffff81111561248e5761248e6119be565b6124988254612049565b6124a382828561243b565b6020601f8311600181146124d757600084156124bf5750858201515b600019600886021c198116600286021786555061110a565b600085815260208120601f198616915b8281101561250757888501518255602094850194600190920191016124e7565b868310156125235784890151600019601f89166008021c191682555b600160028802018855505050505050505050565b602881526000602082017f455243313135353a2069647320616e6420616d6f756e7473206c656e6774682081527f6d69736d617463680000000000000000000000000000000000000000000000006020820152915061201c565b602080825281016106ae81612537565b602581526000602082017f455243313135353a207472616e7366657220746f20746865207a65726f20616481527f64726573730000000000000000000000000000000000000000000000000000006020820152915061201c565b602080825281016106ae816125a1565b602a81526000602082017f455243313135353a20696e73756666696369656e742062616c616e636520666f81527f72207472616e73666572000000000000000000000000000000000000000000006020820152915061201c565b602080825281016106ae8161260b565b604080825281016126868185611df3565b9050818103602083015261196d8184611df3565b602981526000602082017f455243313135353a2073657474696e6720617070726f76616c2073746174757381527f20666f722073656c6600000000000000000000000000000000000000000000006020820152915061201c565b602080825281016106ae8161269a565b601281526000602082017f616c726561647920726567697374657265640000000000000000000000000000815291506121eb565b602080825281016106ae81612704565b602181526000602082017f455243313135353a206d696e7420746f20746865207a65726f2061646472657381527f73000000000000000000000000000000000000000000000000000000000000006020820152915061201c565b602080825281016106ae81612748565b604081016127c0828561191b565b610a70602083018461191b565b60a081016127db8288611e6f565b6127e86020830187611e6f565b81810360408301526127fa8186611df3565b9050818103606083015261280e8185611df3565b905081810360808301526128228184611b31565b979650505050505050565b80516106ae81611931565b60006020828403121561284d5761284d600080fd5b600061196d848461282d565b600060033d11156123e25760046000803e5060005160e01c90565b600060443d10156128825790565b60405160043d036004823e80513d602482011167ffffffffffffffff821117156128ab57505090565b808201805167ffffffffffffffff8111156128c7575050505090565b80602083010160043d0385018111156128e257505050505090565b6128f1826020018501866119d4565b5090949350505050565b603481526000602082017f455243313135353a207472616e7366657220746f206e6f6e2d4552433131353581527f526563656976657220696d706c656d656e7465720000000000000000000000006020820152915061201c565b602080825281016106ae816128fb565b602881526000602082017f455243313135353a204552433131353552656365697665722072656a6563746581527f6420746f6b656e730000000000000000000000000000000000000000000000006020820152915061201c565b602080825281016106ae81612965565b60a081016129dd8288611e6f565b6129ea6020830187611e6f565b6129f7604083018661191b565b612a04606083018561191b565b81810360808301526128228184611b31565b602881526000602082017f455243313135353a206275726e20616d6f756e74206578636565647320746f7481527f616c537570706c790000000000000000000000000000000000000000000000006020820152915061201c565b602080825281016106ae81612a1656fea26469706673582212204dfc9e939df2fed42729b640b7fc9cddd38c9c7d4befa6679611af671994fda364736f6c63430008110033",
  "linkReferences": {},
  "deployedLinkReferences": {}
}