{
  "_format": "hh-sol-artifact-1",
  "contractName": "DataGovernanceToken",
  "sourceName": "contracts/DataGovernanceToken.sol",
  "abi": [
    {
      "inputs": [],
      "stateMutability": "nonpayable",
      "type": "constructor"
    },
    {
      "anonymous": false,
      "inputs": [
        {
          "indexed": true,
          "internalType": "address",
          "name": "owner",
          "type": "address"
        },
        {
          "indexed": true,
          "internalType": "address",
          "name": "spender",
          "type": "address"
        },
        {
          "indexed": false,
          "internalType": "uint256",
          "name": "value",
          "type": "uint256"
        }
      ],
      "name": "Approval",
      "type": "event"
    },
    {
      "anonymous": false,
      "inputs": [
        {
          "indexed": true,
          "internalType": "address",
          "name": "delegator",
          "type": "address"
        },
        {
          "indexed": true,
          "internalType": "address",
          "name": "fromDelegate",
          "type": "address"
        },
        {
          "indexed": true,
          "internalType": "address",
          "name": "toDelegate",
          "type": "address"
        }
      ],
      "name": "DelegateChanged",
      "type": "event"
    },
    {
      "anonymous": false,
      "inputs": [
        {
          "indexed": true,
          "internalType": "address",
          "name": "delegate",
          "type": "address"
        },
        {
          "indexed": false,
          "internalType": "uint256",
          "name": "previousBalance",
          "type": "uint256"
        },
        {
          "indexed": false,
          "internalType": "uint256",
          "name": "newBalance",
          "type": "uint256"
        }
      ],
      "name": "DelegateVotesChanged",
      "type": "event"
    },
    {
      "anonymous": false,
      "inputs": [
        {
          "indexed": true,
          "internalType": "address",
          "name": "from",
          "type": "address"
        },
        {
          "indexed": true,
          "internalType": "address",
          "name": "to",
          "type": "address"
        },
        {
          "indexed": false,
          "internalType": "uint256",
          "name": "value",
          "type": "uint256"
        }
      ],
      "name": "Transfer",
      "type": "event"
    },
    {
      "inputs": [],
      "name": "DOMAIN_SEPARATOR",
      "outputs": [
        {
          "internalType": "bytes32",
          "name": "",
          "type": "bytes32"
        }
      ],
      "stateMutability": "view",
      "type": "function"
    },
    {
      "inputs": [
        {
          "internalType": "address",
          "name": "owner",
          "type": "address"
        },
        {
          "internalType": "address",
          "name": "spender",
          "type": "address"
        }
      ],
      "name": "allowance",
      "outputs": [
        {
          "internalType": "uint256",
          "name": "",
          "type": "uint256"
        }
      ],
      "stateMutability": "view",
      "type": "function"
    },
    {
      "inputs": [
        {
          "internalType": "address",
          "name": "spender",
          "type": "address"
        },
        {
          "internalType": "uint256",
          "name": "amount",
          "type": "uint256"
        }
      ],
      "name": "approve",
      "outputs": [
        {
          "internalType": "bool",
          "name": "",
          "type": "bool"
        }
      ],
      "stateMutability": "nonpayable",
      "type": "function"
    },
    {
      "inputs": [
        {
          "internalType": "address",
          "name": "account",
          "type": "address"
        }
      ],
      "name": "balanceOf",
      "outputs": [
        {
          "internalType": "uint256",
          "name": "",
          "type": "uint256"
        }
      ],
      "stateMutability": "view",
      "type": "function"
    },
    {
      "inputs": [
        {
          "internalType": "address",
          "name": "account",
          "type": "address"
        },
        {
          "internalType": "uint32",
          "name": "pos",
          "type": "uint32"
        }
      ],
      "name": "checkpoints",
      "outputs": [
        {
          "components": [
            {
              "internalType": "uint32",
              "name": "fromBlock",
              "type": "uint32"
            },
            {
              "internalType": "uint224",
              "name": "votes",
              "type": "uint224"
            }
          ],
          "internalType": "struct ERC20Votes.Checkpoint",
          "name": "",
          "type": "tuple"
        }
      ],
      "stateMutability": "view",
      "type": "function"
    },
    {
      "inputs": [],
      "name": "decimals",
      "outputs": [
        {
          "internalType": "uint8",
          "name": "",
          "type": "uint8"
        }
      ],
      "stateMutability": "view",
      "type": "function"
    },
    {
      "inputs": [
        {
          "internalType": "address",
          "name": "spender",
          "type": "address"
        },
        {
          "internalType": "uint256",
          "name": "subtractedValue",
          "type": "uint256"
        }
      ],
      "name": "decreaseAllowance",
      "outputs": [
        {
          "internalType": "bool",
          "name": "",
          "type": "bool"
        }
      ],
      "stateMutability": "nonpayable",
      "type": "function"
    },
    {
      "inputs": [
        {
          "internalType": "address",
          "name": "delegatee",
          "type": "address"
        }
      ],
      "name": "delegate",
      "outputs": [],
      "stateMutability": "nonpayable",
      "type": "function"
    },
    {
      "inputs": [
        {
          "internalType": "address",
          "name": "delegatee",
          "type": "address"
        },
        {
          "internalType": "uint256",
          "name": "nonce",
          "type": "uint256"
        },
        {
          "internalType": "uint256",
          "name": "expiry",
          "type": "uint256"
        },
        {
          "internalType": "uint8",
          "name": "v",
          "type": "uint8"
        },
        {
          "internalType": "bytes32",
          "name": "r",
          "type": "bytes32"
        },
        {
          "internalType": "bytes32",
          "name": "s",
          "type": "bytes32"
        }
      ],
      "name": "delegateBySig",
      "outputs": [],
      "stateMutability": "nonpayable",
      "type": "function"
    },
    {
      "inputs": [
        {
          "internalType": "address",
          "name": "account",
          "type": "address"
        }
      ],
      "name": "delegates",
      "outputs": [
        {
          "internalType": "address",
          "name": "",
          "type": "address"
        }
      ],
      "stateMutability": "view",
      "type": "function"
    },
    {
      "inputs": [
        {
          "internalType": "uint256",
          "name": "blockNumber",
          "type": "uint256"
        }
      ],
      "name": "getPastTotalSupply",
      "outputs": [
        {
          "internalType": "uint256",
          "name": "",
          "type": "uint256"
        }
      ],
      "stateMutability": "view",
      "type": "function"
    },
    {
      "inputs": [
        {
          "internalType": "address",
          "name": "account",
          "type": "address"
        },
        {
          "internalType": "uint256",
          "name": "blockNumber",
          "type": "uint256"
        }
      ],
      "name": "getPastVotes",
      "outputs": [
        {
          "internalType": "uint256",
          "name": "",
          "type": "uint256"
        }
      ],
      "stateMutability": "view",
      "type": "function"
    },
    {
      "inputs": [
        {
          "internalType": "address",
          "name": "account",
          "type": "address"
        }
      ],
      "name": "getVotes",
      "outputs": [
        {
          "internalType": "uint256",
          "name": "",
          "type": "uint256"
        }
      ],
      "stateMutability": "view",
      "type": "function"
    },
    {
      "inputs": [
        {
          "internalType": "address",
          "name": "spender",
          "type": "address"
        },
        {
          "internalType": "uint256",
          "name": "addedValue",
          "type": "uint256"
        }
      ],
      "name": "increaseAllowance",
      "outputs": [
        {
          "internalType": "bool",
          "name": "",
          "type": "bool"
        }
      ],
      "stateMutability": "nonpayable",
      "type": "function"
    },
    {
      "inputs": [],
      "name": "name",
      "outputs": [
        {
          "internalType": "string",
          "name": "",
          "type": "string"
        }
      ],
      "stateMutability": "view",
      "type": "function"
    },
    {
      "inputs": [
        {
          "internalType": "address",
          "name": "owner",
          "type": "address"
        }
      ],
      "name": "nonces",
      "outputs": [
        {
          "internalType": "uint256",
          "name": "",
          "type": "uint256"
        }
      ],
      "stateMutability": "view",
      "type": "function"
    },
    {
      "inputs": [
        {
          "internalType": "address",
          "name": "account",
          "type": "address"
        }
      ],
      "name": "numCheckpoints",
      "outputs": [
        {
          "internalType": "uint32",
          "name": "",
          "type": "uint32"
        }
      ],
      "stateMutability": "view",
      "type": "function"
    },
    {
      "inputs": [
        {
          "internalType": "address",
          "name": "owner",
          "type": "address"
        },
        {
          "internalType": "address",
          "name": "spender",
          "type": "address"
        },
        {
          "internalType": "uint256",
          "name": "value",
          "type": "uint256"
        },
        {
          "internalType": "uint256",
          "name": "deadline",
          "type": "uint256"
        },
        {
          "internalType": "uint8",
          "name": "v",
          "type": "uint8"
        },
        {
          "internalType": "bytes32",
          "name": "r",
          "type": "bytes32"
        },
        {
          "internalType": "bytes32",
          "name": "s",
          "type": "bytes32"
        }
      ],
      "name": "permit",
      "outputs": [],
      "stateMutability": "nonpayable",
      "type": "function"
    },
    {
      "inputs": [],
      "name": "s_maxSupply",
      "outputs": [
        {
          "internalType": "uint256",
          "name": "",
          "type": "uint256"
        }
      ],
      "stateMutability": "view",
      "type": "function"
    },
    {
      "inputs": [],
      "name": "symbol",
      "outputs": [
        {
          "internalType": "string",
          "name": "",
          "type": "string"
        }
      ],
      "stateMutability": "view",
      "type": "function"
    },
    {
      "inputs": [],
      "name": "totalSupply",
      "outputs": [
        {
          "internalType": "uint256",
          "name": "",
          "type": "uint256"
        }
      ],
      "stateMutability": "view",
      "type": "function"
    },
    {
      "inputs": [
        {
          "internalType": "address",
          "name": "to",
          "type": "address"
        },
        {
          "internalType": "uint256",
          "name": "amount",
          "type": "uint256"
        }
      ],
      "name": "transfer",
      "outputs": [
        {
          "internalType": "bool",
          "name": "",
          "type": "bool"
        }
      ],
      "stateMutability": "nonpayable",
      "type": "function"
    },
    {
      "inputs": [
        {
          "internalType": "address",
          "name": "from",
          "type": "address"
        },
        {
          "internalType": "address",
          "name": "to",
          "type": "address"
        },
        {
          "internalType": "uint256",
          "name": "amount",
          "type": "uint256"
        }
      ],
      "name": "transferFrom",
      "outputs": [
        {
          "internalType": "bool",
          "name": "",
          "type": "bool"
        }
      ],
      "stateMutability": "nonpayable",
      "type": "function"
    }
  ],
  "bytecode": "0x61014060405269d3c21bcecceda1000000600a553480156200002057600080fd5b50604051806040016040528060138152602001722230ba30a3b7bb32b93730b731b2aa37b5b2b760691b81525080604051806040016040528060018152602001603160f81b815250604051806040016040528060138152602001722230ba30a3b7bb32b93730b731b2aa37b5b2b760691b815250604051806040016040528060038152602001621111d560ea1b8152508160039081620000c191906200075c565b506004620000d082826200075c565b5050825160208085019190912083519184019190912060e08290526101008190524660a0529091507f8b73c3c69bb8fe3d512ecc4cf759cc79239f7b179b0ffacaa9a75d522b39400f620001268184846200014d565b6080523060c052610120525050600a5462000147935033925090506200018a565b62000a63565b600083838346306040516020016200016a95949392919062000851565b6040516020818303038152906040528051906020012090505b9392505050565b620001a18282620001a560201b620008c31760201c565b5050565b620001bc82826200021960201b6200090a1760201c565b6001600160e01b03620001d0620002c08216565b1115620001fa5760405162461bcd60e51b8152600401620001f190620008f7565b60405180910390fd5b620002136009620009ac620002c660201b1783620002dd565b50505050565b6001600160a01b038216620002425760405162461bcd60e51b8152600401620001f19062000909565b80600260008282546200025691906200095b565b90915550506001600160a01b038216600081815260208190526040808220805485019055517fddf252ad1be2c89b69c2b068fc378daa952ba7f163c4a11628f55a4df523b3ef90620002aa90859062000971565b60405180910390a3620001a16000838362000474565b60025490565b6000620002d482846200095b565b90505b92915050565b825460009081908181156200033d576200030c87620002fe60018562000981565b600091825260209091200190565b60408051808201909152905463ffffffff8116825264010000000090046001600160e01b0316602082015262000352565b60408051808201909152600080825260208201525b905080602001516001600160e01b031693506200037084868860201c565b9250600082118015620003895750805163ffffffff1643145b15620003e057620003a5836200048c60201b620009b81760201c565b620003b788620002fe60018662000981565b80546001600160e01b03929092166401000000000263ffffffff90921691909117905562000465565b8660405180604001604052806200040243620004bc60201b620009e51760201c565b63ffffffff16815260200162000423866200048c60201b620009b81760201c565b6001600160e01b0390811690915282546001810184556000938452602093849020835194909301519091166401000000000263ffffffff909316929092179101555b5050935093915050565b505050565b6200046f838383620004e560201b62000a0b1760201c565b60006001600160e01b03821115620004b85760405162461bcd60e51b8152600401620001f190620009dc565b5090565b600063ffffffff821115620004b85760405162461bcd60e51b8152600401620001f19062000a32565b620004fd8383836200046f60201b62000a3d1760201c565b6001600160a01b038381166000908152600760205260408082205485841683529120546200046f929182169116838183148015906200053c5750600081115b156200046f576001600160a01b03831615620005c1576001600160a01b03831660009081526008602090815260408220829162000586919062000644901b62000a421785620002dd565b91509150846001600160a01b031660008051602062002cd08339815191528383604051620005b692919062000a44565b60405180910390a250505b6001600160a01b038216156200046f576001600160a01b038216600090815260086020908152604082208291620006059190620002c6901b620009ac1785620002dd565b91509150836001600160a01b031660008051602062002cd083398151915283836040516200063592919062000a44565b60405180910390a25050505050565b6000620002d4828462000981565b634e487b7160e01b600052604160045260246000fd5b634e487b7160e01b600052602260045260246000fd5b6002810460018216806200069357607f821691505b602082108103620006a857620006a862000668565b50919050565b6000620002d7620006bc8381565b90565b620006ca83620006ae565b81546008840282811b60001990911b908116901990911617825550505050565b60006200046f818484620006bf565b81811015620001a1576200070f600082620006ea565b600101620006f9565b601f8211156200046f576000818152602090206020601f85010481016020851015620007415750805b620007556020601f860104830182620006f9565b5050505050565b81516001600160401b0381111562000778576200077862000652565b6200078482546200067e565b6200079182828562000718565b6020601f831160018114620007c85760008415620007af5750858201515b600019600886021c198116600286021786555062000824565b600085815260208120601f198616915b82811015620007fa5788850151825560209485019460019092019101620007d8565b86831015620008175784890151600019601f89166008021c191682555b6001600288020188555050505b505050505050565b805b82525050565b60006001600160a01b038216620002d7565b6200082e8162000834565b60a081016200086182886200082c565b6200087060208301876200082c565b6200087f60408301866200082c565b6200088e60608301856200082c565b6200089d608083018462000846565b9695505050505050565b603081526000602082017f4552433230566f7465733a20746f74616c20737570706c79207269736b73206f81526f766572666c6f77696e6720766f74657360801b602082015291505b5060400190565b60208082528101620002d781620008a7565b60208082528101620002d781601f81527f45524332303a206d696e7420746f20746865207a65726f206164647265737300602082015260400190565b634e487b7160e01b600052601160045260246000fd5b80820180821115620002d757620002d762000945565b60208101620002d782846200082c565b81810381811115620002d757620002d762000945565b602781526000602082017f53616665436173743a2076616c756520646f65736e27742066697420696e20328152663234206269747360c81b60208201529150620008f0565b60208082528101620002d78162000997565b602681526000602082017f53616665436173743a2076616c756520646f65736e27742066697420696e203381526532206269747360d01b60208201529150620008f0565b60208082528101620002d781620009ee565b6040810162000a5482856200082c565b6200018360208301846200082c565b60805160a05160c05160e051610100516101205161221d62000ab36000396000610cdc01526000610d1e01526000610cfd01526000610c6101526000610c8b01526000610cb5015261221d6000f3fe608060405234801561001057600080fd5b506004361061018d5760003560e01c80636fcfff45116100e3578063a457c2d71161008c578063d505accf11610066578063d505accf1461034b578063dd62ed3e1461035e578063f1127ed81461039757600080fd5b8063a457c2d714610312578063a9059cbb14610325578063c3cda5201461033857600080fd5b80638e539e8c116100bd5780638e539e8c146102e457806395d89b41146102f75780639ab24eb0146102ff57600080fd5b80636fcfff451461028857806370a08231146102a85780637ecebe00146102d157600080fd5b80633644e51511610145578063587cde1e1161011f578063587cde1e146102315780635c19a95c1461026a5780635d6418471461027f57600080fd5b80633644e51514610203578063395093511461020b5780633a46b1a81461021e57600080fd5b806318160ddd1161017657806318160ddd146101d057806323b872dd146101e1578063313ce567146101f457600080fd5b806306fdde0314610192578063095ea7b3146101b0575b600080fd5b61019a6103b7565b6040516101a7919061158d565b60405180910390f35b6101c36101be3660046115df565b610449565b6040516101a79190611626565b6002545b6040516101a7919061163a565b6101c36101ef366004611648565b610463565b60126040516101a791906116a1565b6101d4610489565b6101c36102193660046115df565b610498565b6101d461022c3660046115df565b6104d7565b61025d61023f3660046116af565b6001600160a01b039081166000908152600760205260409020541690565b6040516101a791906116e1565b61027d6102783660046116af565b610523565b005b6101d4600a5481565b61029b6102963660046116af565b610530565b6040516101a791906116fb565b6101d46102b63660046116af565b6001600160a01b031660009081526020819052604090205490565b6101d46102df3660046116af565b610552565b6101d46102f2366004611709565b610570565b61019a61059c565b6101d461030d3660046116af565b6105ab565b6101c36103203660046115df565b610632565b6101c36103333660046115df565b610691565b61027d61034636600461173e565b61069f565b61027d6103593660046117c8565b61075d565b6101d461036c366004611867565b6001600160a01b03918216600090815260016020908152604080832093909416825291909152205490565b6103aa6103a53660046118b1565b61083f565b6040516101a79190611917565b6060600380546103c69061193b565b80601f01602080910402602001604051908101604052809291908181526020018280546103f29061193b565b801561043f5780601f106104145761010080835404028352916020019161043f565b820191906000526020600020905b81548152906001019060200180831161042257829003601f168201915b5050505050905090565b600033610457818585610a4e565b60019150505b92915050565b600033610471858285610b02565b61047c858585610b5e565b60019150505b9392505050565b6000610493610c54565b905090565b3360008181526001602090815260408083206001600160a01b038716845290915281205490919061045790829086906104d2908790611977565b610a4e565b60004382106105015760405162461bcd60e51b81526004016104f8906119c1565b60405180910390fd5b6001600160a01b03831660009081526008602052604090206104829083610d42565b61052d3382610e39565b50565b6001600160a01b03811660009081526008602052604081205461045d906109e5565b6001600160a01b03811660009081526005602052604081205461045d565b60004382106105915760405162461bcd60e51b81526004016104f8906119c1565b61045d600983610d42565b6060600480546103c69061193b565b6001600160a01b038116600090815260086020526040812054801561061f576001600160a01b03831660009081526008602052604090206105ed6001836119d1565b815481106105fd576105fd6119e4565b60009182526020909120015464010000000090046001600160e01b0316610622565b60005b6001600160e01b03169392505050565b3360008181526001602090815260408083206001600160a01b0387168452909152812054909190838110156106795760405162461bcd60e51b81526004016104f890611a57565b6106868286868403610a4e565b506001949350505050565b600033610457818585610b5e565b834211156106bf5760405162461bcd60e51b81526004016104f890611a9b565b60006107216107197fe48329057bfd03d55e49b547132e39cffd9c1820ad7b9d4c5307691425d15adf8989896040516020016106fe9493929190611aab565b60405160208183030381529060405280519060200120610eca565b858585610edd565b905061072c81610f05565b861461074a5760405162461bcd60e51b81526004016104f890611b1d565b6107548188610e39565b50505050505050565b8342111561077d5760405162461bcd60e51b81526004016104f890611b61565b60007f6e71edae12b1b97f4d1f60370fef10105fa2faae0126114a169c64845d6126c98888886107ac8c610f05565b896040516020016107c296959493929190611b71565b60405160208183030381529060405280519060200120905060006107e582610eca565b905060006107f582878787610edd565b9050896001600160a01b0316816001600160a01b0316146108285760405162461bcd60e51b81526004016104f890611bff565b6108338a8a8a610a4e565b50505050505050505050565b60408051808201909152600080825260208201526001600160a01b0383166000908152600860205260409020805463ffffffff8416908110610883576108836119e4565b60009182526020918290206040805180820190915291015463ffffffff8116825264010000000090046001600160e01b0316918101919091529392505050565b6108cd828261090a565b6002546001600160e01b0310156108f65760405162461bcd60e51b81526004016104f890611c69565b61090460096109ac83610f2d565b50505050565b6001600160a01b0382166109305760405162461bcd60e51b81526004016104f890611cad565b80600260008282546109429190611977565b90915550506001600160a01b038216600081815260208190526040808220805485019055517fddf252ad1be2c89b69c2b068fc378daa952ba7f163c4a11628f55a4df523b3ef9061099490859061163a565b60405180910390a36109a860008383611081565b5050565b60006104828284611977565b60006001600160e01b038211156109e15760405162461bcd60e51b81526004016104f890611d17565b5090565b600063ffffffff8211156109e15760405162461bcd60e51b81526004016104f890611d81565b6001600160a01b03838116600090815260076020526040808220548584168352912054610a3d9291821691168361108c565b505050565b600061048282846119d1565b6001600160a01b038316610a745760405162461bcd60e51b81526004016104f890611deb565b6001600160a01b038216610a9a5760405162461bcd60e51b81526004016104f890611e55565b6001600160a01b0380841660008181526001602090815260408083209487168084529490915290819020849055517f8c5be1e5ebec7d5bd14f71427d1e84f3dd0314c0f7b2291e5b200ac8c7c3b92590610af590859061163a565b60405180910390a3505050565b6001600160a01b0383811660009081526001602090815260408083209386168352929052205460001981146109045781811015610b515760405162461bcd60e51b81526004016104f890611e99565b6109048484848403610a4e565b6001600160a01b038316610b845760405162461bcd60e51b81526004016104f890611f03565b6001600160a01b038216610baa5760405162461bcd60e51b81526004016104f890611f6d565b6001600160a01b03831660009081526020819052604090205481811015610be35760405162461bcd60e51b81526004016104f890611fd7565b6001600160a01b0380851660008181526020819052604080822086860390559286168082529083902080548601905591517fddf252ad1be2c89b69c2b068fc378daa952ba7f163c4a11628f55a4df523b3ef90610c4190869061163a565b60405180910390a3610904848484611081565b6000306001600160a01b037f000000000000000000000000000000000000000000000000000000000000000016148015610cad57507f000000000000000000000000000000000000000000000000000000000000000046145b15610cd757507f000000000000000000000000000000000000000000000000000000000000000090565b6104937f00000000000000000000000000000000000000000000000000000000000000007f00000000000000000000000000000000000000000000000000000000000000007f00000000000000000000000000000000000000000000000000000000000000006111b7565b815460009081816005811115610d9c576000610d5d846111f1565b610d6790856119d1565b600088815260209020909150869082015463ffffffff161115610d8c57809150610d9a565b610d97816001611977565b92505b505b80821015610de9576000610db083836112d9565b600088815260209020909150869082015463ffffffff161115610dd557809150610de3565b610de0816001611977565b92505b50610d9c565b8015610e2357610e0c86610dfe6001846119d1565b600091825260209091200190565b5464010000000090046001600160e01b0316610e26565b60005b6001600160e01b03169695505050505050565b6001600160a01b038281166000818152600760208181526040808420805485845282862054949093528787167fffffffffffffffffffffffff00000000000000000000000000000000000000008416811790915590519190951694919391928592917f3134e8a2e6d97e929a7e54011ea5485d7d196dd5f0ba4d4ef95803e8e3fc257f9190a461090482848361108c565b600061045d610ed7610c54565b836112f4565b6000806000610eee87878787611327565b91509150610efb816113de565b5095945050505050565b6001600160a01b03811660009081526005602052604090208054600181018255905b50919050565b82546000908190818115610f7a57610f4a87610dfe6001856119d1565b60408051808201909152905463ffffffff8116825264010000000090046001600160e01b03166020820152610f8f565b60408051808201909152600080825260208201525b905080602001516001600160e01b03169350610faf84868863ffffffff16565b9250600082118015610fc75750805163ffffffff1643145b1561100c57610fd5836109b8565b610fe488610dfe6001866119d1565b80546001600160e01b03929092166401000000000263ffffffff909216919091179055611077565b866040518060400160405280611021436109e5565b63ffffffff168152602001611035866109b8565b6001600160e01b0390811690915282546001810184556000938452602093849020835194909301519091166401000000000263ffffffff909316929092179101555b5050935093915050565b610a3d838383610a0b565b816001600160a01b0316836001600160a01b0316141580156110ae5750600081115b15610a3d576001600160a01b03831615611133576001600160a01b038316600090815260086020526040812081906110e990610a4285610f2d565b91509150846001600160a01b03167fdec2bacdd2f05b59de34da9b523dff8be42e5e38e818c82fdb0bae774387a7248383604051611128929190611fe7565b60405180910390a250505b6001600160a01b03821615610a3d576001600160a01b03821660009081526008602052604081208190611169906109ac85610f2d565b91509150836001600160a01b03167fdec2bacdd2f05b59de34da9b523dff8be42e5e38e818c82fdb0bae774387a72483836040516111a8929190611fe7565b60405180910390a25050505050565b600083838346306040516020016111d2959493929190612002565b6040516020818303038152906040528051906020012090509392505050565b60008160000361120357506000919050565b600060016112108461148d565b901c6001901b905060018184816112295761122961204e565b048201901c905060018184816112415761124161204e565b048201901c905060018184816112595761125961204e565b048201901c905060018184816112715761127161204e565b048201901c905060018184816112895761128961204e565b048201901c905060018184816112a1576112a161204e565b048201901c905060018184816112b9576112b961204e565b048201901c9050610482818285816112d3576112d361204e565b04611521565b60006112e86002848418612064565b61048290848416611977565b60008282604051602001611309929190612078565b60405160208183030381529060405280519060200120905092915050565b6000807f7fffffffffffffffffffffffffffffff5d576e7357a4501ddfe92f46681b20a083111561135e57506000905060036113d5565b60006001878787876040516000815260200160405260405161138394939291906120c4565b6020604051602081039080840390855afa1580156113a5573d6000803e3d6000fd5b5050604051601f1901519150506001600160a01b0381166113ce576000600192509250506113d5565b9150600090505b94509492505050565b60008160048111156113f2576113f26120df565b036113fa5750565b600181600481111561140e5761140e6120df565b0361142b5760405162461bcd60e51b81526004016104f890612129565b600281600481111561143f5761143f6120df565b0361145c5760405162461bcd60e51b81526004016104f89061216d565b6003816004811115611470576114706120df565b0361052d5760405162461bcd60e51b81526004016104f8906121d7565b600080608083901c156114a257608092831c92015b604083901c156114b457604092831c92015b602083901c156114c657602092831c92015b601083901c156114d857601092831c92015b600883901c156114ea57600892831c92015b600483901c156114fc57600492831c92015b600283901c1561150e57600292831c92015b600183901c1561045d5760010192915050565b60008183106115305781610482565b5090919050565b60005b8381101561155257818101518382015260200161153a565b50506000910152565b6000611565825190565b80845260208401935061157c818560208601611537565b601f01601f19169290920192915050565b60208082528101610482818461155b565b60006001600160a01b03821661045d565b6115b88161159e565b811461052d57600080fd5b803561045d816115af565b806115b8565b803561045d816115ce565b600080604083850312156115f5576115f5600080fd5b600061160185856115c3565b9250506020611612858286016115d4565b9150509250929050565b8015155b82525050565b6020810161045d828461161c565b80611620565b6020810161045d8284611634565b60008060006060848603121561166057611660600080fd5b600061166c86866115c3565b935050602061167d868287016115c3565b925050604061168e868287016115d4565b9150509250925092565b60ff8116611620565b6020810161045d8284611698565b6000602082840312156116c4576116c4600080fd5b60006116d084846115c3565b949350505050565b6116208161159e565b6020810161045d82846116d8565b63ffffffff8116611620565b6020810161045d82846116ef565b60006020828403121561171e5761171e600080fd5b60006116d084846115d4565b60ff81166115b8565b803561045d8161172a565b60008060008060008060c0878903121561175a5761175a600080fd5b600061176689896115c3565b965050602061177789828a016115d4565b955050604061178889828a016115d4565b945050606061179989828a01611733565b93505060806117aa89828a016115d4565b92505060a06117bb89828a016115d4565b9150509295509295509295565b600080600080600080600060e0888a0312156117e6576117e6600080fd5b60006117f28a8a6115c3565b97505060206118038a828b016115c3565b96505060406118148a828b016115d4565b95505060606118258a828b016115d4565b94505060806118368a828b01611733565b93505060a06118478a828b016115d4565b92505060c06118588a828b016115d4565b91505092959891949750929550565b6000806040838503121561187d5761187d600080fd5b600061188985856115c3565b9250506020611612858286016115c3565b63ffffffff81166115b8565b803561045d8161189a565b600080604083850312156118c7576118c7600080fd5b60006118d385856115c3565b9250506020611612858286016118a6565b6001600160e01b038116611620565b8051604083019061190484826116ef565b50602082015161090460208501826118e4565b6040810161045d82846118f3565b634e487b7160e01b600052602260045260246000fd5b60028104600182168061194f57607f821691505b602082108103610f2757610f27611925565b634e487b7160e01b600052601160045260246000fd5b8082018082111561045d5761045d611961565b601f81526000602082017f4552433230566f7465733a20626c6f636b206e6f7420796574206d696e656400815291505b5060200190565b6020808252810161045d8161198a565b8181038181111561045d5761045d611961565b634e487b7160e01b600052603260045260246000fd5b602581526000602082017f45524332303a2064656372656173656420616c6c6f77616e63652062656c6f7781527f207a65726f000000000000000000000000000000000000000000000000000000602082015291505b5060400190565b6020808252810161045d816119fa565b601d81526000602082017f4552433230566f7465733a207369676e61747572652065787069726564000000815291506119ba565b6020808252810161045d81611a67565b60808101611ab98287611634565b611ac660208301866116d8565b611ad36040830185611634565b611ae06060830184611634565b95945050505050565b601981526000602082017f4552433230566f7465733a20696e76616c6964206e6f6e636500000000000000815291506119ba565b6020808252810161045d81611ae9565b601d81526000602082017f45524332305065726d69743a206578706972656420646561646c696e65000000815291506119ba565b6020808252810161045d81611b2d565b60c08101611b7f8289611634565b611b8c60208301886116d8565b611b9960408301876116d8565b611ba66060830186611634565b611bb36080830185611634565b611bc060a0830184611634565b979650505050505050565b601e81526000602082017f45524332305065726d69743a20696e76616c6964207369676e61747572650000815291506119ba565b6020808252810161045d81611bcb565b603081526000602082017f4552433230566f7465733a20746f74616c20737570706c79207269736b73206f81527f766572666c6f77696e6720766f7465730000000000000000000000000000000060208201529150611a50565b6020808252810161045d81611c0f565b601f81526000602082017f45524332303a206d696e7420746f20746865207a65726f206164647265737300815291506119ba565b6020808252810161045d81611c79565b602781526000602082017f53616665436173743a2076616c756520646f65736e27742066697420696e203281527f323420626974730000000000000000000000000000000000000000000000000060208201529150611a50565b6020808252810161045d81611cbd565b602681526000602082017f53616665436173743a2076616c756520646f65736e27742066697420696e203381527f322062697473000000000000000000000000000000000000000000000000000060208201529150611a50565b6020808252810161045d81611d27565b602481526000602082017f45524332303a20617070726f76652066726f6d20746865207a65726f2061646481527f726573730000000000000000000000000000000000000000000000000000000060208201529150611a50565b6020808252810161045d81611d91565b602281526000602082017f45524332303a20617070726f766520746f20746865207a65726f20616464726581527f737300000000000000000000000000000000000000000000000000000000000060208201529150611a50565b6020808252810161045d81611dfb565b601d81526000602082017f45524332303a20696e73756666696369656e7420616c6c6f77616e6365000000815291506119ba565b6020808252810161045d81611e65565b602581526000602082017f45524332303a207472616e736665722066726f6d20746865207a65726f20616481527f647265737300000000000000000000000000000000000000000000000000000060208201529150611a50565b6020808252810161045d81611ea9565b602381526000602082017f45524332303a207472616e7366657220746f20746865207a65726f206164647281527f657373000000000000000000000000000000000000000000000000000000000060208201529150611a50565b6020808252810161045d81611f13565b602681526000602082017f45524332303a207472616e7366657220616d6f756e742065786365656473206281527f616c616e6365000000000000000000000000000000000000000000000000000060208201529150611a50565b6020808252810161045d81611f7d565b60408101611ff58285611634565b6104826020830184611634565b60a081016120108288611634565b61201d6020830187611634565b61202a6040830186611634565b6120376060830185611634565b61204460808301846116d8565b9695505050505050565b634e487b7160e01b600052601260045260246000fd5b6000826120735761207361204e565b500490565b7f1901000000000000000000000000000000000000000000000000000000000000815260020160006120aa8285611634565b6020820191506120ba8284611634565b5060200192915050565b608081016120d28287611634565b611ac66020830186611698565b634e487b7160e01b600052602160045260246000fd5b601881526000602082017f45434453413a20696e76616c6964207369676e61747572650000000000000000815291506119ba565b6020808252810161045d816120f5565b601f81526000602082017f45434453413a20696e76616c6964207369676e6174757265206c656e67746800815291506119ba565b6020808252810161045d81612139565b602281526000602082017f45434453413a20696e76616c6964207369676e6174757265202773272076616c81527f756500000000000000000000000000000000000000000000000000000000000060208201529150611a50565b6020808252810161045d8161217d56fea264697066735822122067ab652e1828c51201d6d61eb3275f6b0aed3478fcda907a2e184f88c075af0964736f6c63430008110033dec2bacdd2f05b59de34da9b523dff8be42e5e38e818c82fdb0bae774387a724",
  "linkReferences": {},
  "deployedLinkReferences": {}
}