{
  "_format": "hh-sol-artifact-1",
  "contractName": "DaoDealClient",
  "sourceName": "contracts/DaoDealClient.sol",
  "abi": [
    {
      "inputs": [
        {
          "internalType": "int256",
          "name": "errorCode",
          "type": "int256"
        }
      ],
      "name": "ActorError",
      "type": "error"
    },
    {
      "inputs": [],
      "name": "ActorNotFound",
      "type": "error"
    },
    {
      "inputs": [],
      "name": "FailToCallActor",
      "type": "error"
    },
    {
      "inputs": [],
      "name": "InvalidAddress",
      "type": "error"
    },
    {
      "inputs": [
        {
          "internalType": "uint64",
          "name": "",
          "type": "uint64"
        }
      ],
      "name": "InvalidCodec",
      "type": "error"
    },
    {
      "inputs": [],
      "name": "InvalidResponseLength",
      "type": "error"
    },
    {
      "inputs": [],
      "name": "NegativeValueNotAllowed",
      "type": "error"
    },
    {
      "inputs": [
        {
          "internalType": "uint256",
          "name": "balance",
          "type": "uint256"
        },
        {
          "internalType": "uint256",
          "name": "value",
          "type": "uint256"
        }
      ],
      "name": "NotEnoughBalance",
      "type": "error"
    },
    {
      "anonymous": false,
      "inputs": [
        {
          "indexed": true,
          "internalType": "bytes32",
          "name": "id",
          "type": "bytes32"
        },
        {
          "indexed": false,
          "internalType": "uint64",
          "name": "size",
          "type": "uint64"
        },
        {
          "indexed": true,
          "internalType": "bool",
          "name": "verified",
          "type": "bool"
        },
        {
          "indexed": false,
          "internalType": "uint256",
          "name": "price",
          "type": "uint256"
        }
      ],
      "name": "DealProposalCreate",
      "type": "event"
    },
    {
      "anonymous": false,
      "inputs": [
        {
          "indexed": true,
          "internalType": "address",
          "name": "previousOwner",
          "type": "address"
        },
        {
          "indexed": true,
          "internalType": "address",
          "name": "newOwner",
          "type": "address"
        }
      ],
      "name": "OwnershipTransferred",
      "type": "event"
    },
    {
      "anonymous": false,
      "inputs": [
        {
          "indexed": false,
          "internalType": "string",
          "name": "received",
          "type": "string"
        }
      ],
      "name": "ReceivedDataCap",
      "type": "event"
    },
    {
      "inputs": [],
      "name": "AUTHENTICATE_MESSAGE_METHOD_NUM",
      "outputs": [
        {
          "internalType": "uint64",
          "name": "",
          "type": "uint64"
        }
      ],
      "stateMutability": "view",
      "type": "function"
    },
    {
      "inputs": [],
      "name": "DATACAP_ACTOR_ETH_ADDRESS",
      "outputs": [
        {
          "internalType": "address",
          "name": "",
          "type": "address"
        }
      ],
      "stateMutability": "view",
      "type": "function"
    },
    {
      "inputs": [],
      "name": "DATACAP_RECEIVER_HOOK_METHOD_NUM",
      "outputs": [
        {
          "internalType": "uint64",
          "name": "",
          "type": "uint64"
        }
      ],
      "stateMutability": "view",
      "type": "function"
    },
    {
      "inputs": [],
      "name": "MARKET_ACTOR_ETH_ADDRESS",
      "outputs": [
        {
          "internalType": "address",
          "name": "",
          "type": "address"
        }
      ],
      "stateMutability": "view",
      "type": "function"
    },
    {
      "inputs": [],
      "name": "MARKET_NOTIFY_DEAL_METHOD_NUM",
      "outputs": [
        {
          "internalType": "uint64",
          "name": "",
          "type": "uint64"
        }
      ],
      "stateMutability": "view",
      "type": "function"
    },
    {
      "inputs": [
        {
          "internalType": "uint256",
          "name": "value",
          "type": "uint256"
        }
      ],
      "name": "addBalance",
      "outputs": [],
      "stateMutability": "nonpayable",
      "type": "function"
    },
    {
      "inputs": [
        {
          "internalType": "bytes32",
          "name": "",
          "type": "bytes32"
        }
      ],
      "name": "dealRequestIdx",
      "outputs": [
        {
          "internalType": "uint256",
          "name": "idx",
          "type": "uint256"
        },
        {
          "internalType": "bool",
          "name": "valid",
          "type": "bool"
        }
      ],
      "stateMutability": "view",
      "type": "function"
    },
    {
      "inputs": [
        {
          "internalType": "uint256",
          "name": "",
          "type": "uint256"
        }
      ],
      "name": "dealRequests",
      "outputs": [
        {
          "internalType": "bytes",
          "name": "piece_cid",
          "type": "bytes"
        },
        {
          "internalType": "uint64",
          "name": "piece_size",
          "type": "uint64"
        },
        {
          "internalType": "bool",
          "name": "verified_deal",
          "type": "bool"
        },
        {
          "internalType": "string",
          "name": "label",
          "type": "string"
        },
        {
          "internalType": "int64",
          "name": "start_epoch",
          "type": "int64"
        },
        {
          "internalType": "int64",
          "name": "end_epoch",
          "type": "int64"
        },
        {
          "internalType": "uint256",
          "name": "storage_price_per_epoch",
          "type": "uint256"
        },
        {
          "internalType": "uint256",
          "name": "provider_collateral",
          "type": "uint256"
        },
        {
          "internalType": "uint256",
          "name": "client_collateral",
          "type": "uint256"
        },
        {
          "internalType": "uint64",
          "name": "extra_params_version",
          "type": "uint64"
        },
        {
          "components": [
            {
              "internalType": "string",
              "name": "location_ref",
              "type": "string"
            },
            {
              "internalType": "uint64",
              "name": "car_size",
              "type": "uint64"
            },
            {
              "internalType": "bool",
              "name": "skip_ipni_announce",
              "type": "bool"
            },
            {
              "internalType": "bool",
              "name": "remove_unsealed_copy",
              "type": "bool"
            }
          ],
          "internalType": "struct ExtraParamsV1",
          "name": "extra_params",
          "type": "tuple"
        }
      ],
      "stateMutability": "view",
      "type": "function"
    },
    {
      "inputs": [],
      "name": "dealsLength",
      "outputs": [
        {
          "internalType": "uint256",
          "name": "",
          "type": "uint256"
        }
      ],
      "stateMutability": "view",
      "type": "function"
    },
    {
      "inputs": [
        {
          "internalType": "uint256",
          "name": "index",
          "type": "uint256"
        }
      ],
      "name": "getDealByIndex",
      "outputs": [
        {
          "components": [
            {
              "internalType": "bytes",
              "name": "piece_cid",
              "type": "bytes"
            },
            {
              "internalType": "uint64",
              "name": "piece_size",
              "type": "uint64"
            },
            {
              "internalType": "bool",
              "name": "verified_deal",
              "type": "bool"
            },
            {
              "internalType": "string",
              "name": "label",
              "type": "string"
            },
            {
              "internalType": "int64",
              "name": "start_epoch",
              "type": "int64"
            },
            {
              "internalType": "int64",
              "name": "end_epoch",
              "type": "int64"
            },
            {
              "internalType": "uint256",
              "name": "storage_price_per_epoch",
              "type": "uint256"
            },
            {
              "internalType": "uint256",
              "name": "provider_collateral",
              "type": "uint256"
            },
            {
              "internalType": "uint256",
              "name": "client_collateral",
              "type": "uint256"
            },
            {
              "internalType": "uint64",
              "name": "extra_params_version",
              "type": "uint64"
            },
            {
              "components": [
                {
                  "internalType": "string",
                  "name": "location_ref",
                  "type": "string"
                },
                {
                  "internalType": "uint64",
                  "name": "car_size",
                  "type": "uint64"
                },
                {
                  "internalType": "bool",
                  "name": "skip_ipni_announce",
                  "type": "bool"
                },
                {
                  "internalType": "bool",
                  "name": "remove_unsealed_copy",
                  "type": "bool"
                }
              ],
              "internalType": "struct ExtraParamsV1",
              "name": "extra_params",
              "type": "tuple"
            }
          ],
          "internalType": "struct DealRequest",
          "name": "",
          "type": "tuple"
        }
      ],
      "stateMutability": "view",
      "type": "function"
    },
    {
      "inputs": [
        {
          "internalType": "bytes32",
          "name": "proposalId",
          "type": "bytes32"
        }
      ],
      "name": "getDealProposal",
      "outputs": [
        {
          "internalType": "bytes",
          "name": "",
          "type": "bytes"
        }
      ],
      "stateMutability": "view",
      "type": "function"
    },
    {
      "inputs": [
        {
          "internalType": "bytes32",
          "name": "proposalId",
          "type": "bytes32"
        }
      ],
      "name": "getExtraParams",
      "outputs": [
        {
          "internalType": "bytes",
          "name": "extra_params",
          "type": "bytes"
        }
      ],
      "stateMutability": "view",
      "type": "function"
    },
    {
      "inputs": [
        {
          "internalType": "bytes",
          "name": "cid",
          "type": "bytes"
        }
      ],
      "name": "getProposalIdSet",
      "outputs": [
        {
          "components": [
            {
              "internalType": "bytes32",
              "name": "requestId",
              "type": "bytes32"
            },
            {
              "internalType": "bool",
              "name": "valid",
              "type": "bool"
            }
          ],
          "internalType": "struct RequestId",
          "name": "",
          "type": "tuple"
        }
      ],
      "stateMutability": "view",
      "type": "function"
    },
    {
      "inputs": [
        {
          "internalType": "bytes",
          "name": "cid",
          "type": "bytes"
        }
      ],
      "name": "getProviderSet",
      "outputs": [
        {
          "components": [
            {
              "internalType": "bytes",
              "name": "provider",
              "type": "bytes"
            },
            {
              "internalType": "bool",
              "name": "valid",
              "type": "bool"
            }
          ],
          "internalType": "struct ProviderSet",
          "name": "",
          "type": "tuple"
        }
      ],
      "stateMutability": "view",
      "type": "function"
    },
    {
      "inputs": [
        {
          "internalType": "uint64",
          "name": "method",
          "type": "uint64"
        },
        {
          "internalType": "uint64",
          "name": "",
          "type": "uint64"
        },
        {
          "internalType": "bytes",
          "name": "params",
          "type": "bytes"
        }
      ],
      "name": "handle_filecoin_method",
      "outputs": [
        {
          "internalType": "uint32",
          "name": "",
          "type": "uint32"
        },
        {
          "internalType": "uint64",
          "name": "",
          "type": "uint64"
        },
        {
          "internalType": "bytes",
          "name": "",
          "type": "bytes"
        }
      ],
      "stateMutability": "nonpayable",
      "type": "function"
    },
    {
      "inputs": [
        {
          "components": [
            {
              "internalType": "bytes",
              "name": "piece_cid",
              "type": "bytes"
            },
            {
              "internalType": "uint64",
              "name": "piece_size",
              "type": "uint64"
            },
            {
              "internalType": "bool",
              "name": "verified_deal",
              "type": "bool"
            },
            {
              "internalType": "string",
              "name": "label",
              "type": "string"
            },
            {
              "internalType": "int64",
              "name": "start_epoch",
              "type": "int64"
            },
            {
              "internalType": "int64",
              "name": "end_epoch",
              "type": "int64"
            },
            {
              "internalType": "uint256",
              "name": "storage_price_per_epoch",
              "type": "uint256"
            },
            {
              "internalType": "uint256",
              "name": "provider_collateral",
              "type": "uint256"
            },
            {
              "internalType": "uint256",
              "name": "client_collateral",
              "type": "uint256"
            },
            {
              "internalType": "uint64",
              "name": "extra_params_version",
              "type": "uint64"
            },
            {
              "components": [
                {
                  "internalType": "string",
                  "name": "location_ref",
                  "type": "string"
                },
                {
                  "internalType": "uint64",
                  "name": "car_size",
                  "type": "uint64"
                },
                {
                  "internalType": "bool",
                  "name": "skip_ipni_announce",
                  "type": "bool"
                },
                {
                  "internalType": "bool",
                  "name": "remove_unsealed_copy",
                  "type": "bool"
                }
              ],
              "internalType": "struct ExtraParamsV1",
              "name": "extra_params",
              "type": "tuple"
            }
          ],
          "internalType": "struct DealRequest",
          "name": "deal",
          "type": "tuple"
        }
      ],
      "name": "makeDealProposal",
      "outputs": [
        {
          "internalType": "bytes32",
          "name": "",
          "type": "bytes32"
        }
      ],
      "stateMutability": "nonpayable",
      "type": "function"
    },
    {
      "inputs": [],
      "name": "owner",
      "outputs": [
        {
          "internalType": "address",
          "name": "",
          "type": "address"
        }
      ],
      "stateMutability": "view",
      "type": "function"
    },
    {
      "inputs": [
        {
          "internalType": "bytes",
          "name": "",
          "type": "bytes"
        }
      ],
      "name": "pieceDeals",
      "outputs": [
        {
          "internalType": "uint64",
          "name": "",
          "type": "uint64"
        }
      ],
      "stateMutability": "view",
      "type": "function"
    },
    {
      "inputs": [
        {
          "internalType": "bytes",
          "name": "",
          "type": "bytes"
        }
      ],
      "name": "pieceProviders",
      "outputs": [
        {
          "internalType": "bytes",
          "name": "provider",
          "type": "bytes"
        },
        {
          "internalType": "bool",
          "name": "valid",
          "type": "bool"
        }
      ],
      "stateMutability": "view",
      "type": "function"
    },
    {
      "inputs": [
        {
          "internalType": "bytes",
          "name": "",
          "type": "bytes"
        }
      ],
      "name": "pieceRequests",
      "outputs": [
        {
          "internalType": "bytes32",
          "name": "requestId",
          "type": "bytes32"
        },
        {
          "internalType": "bool",
          "name": "valid",
          "type": "bool"
        }
      ],
      "stateMutability": "view",
      "type": "function"
    },
    {
      "inputs": [
        {
          "internalType": "bytes",
          "name": "",
          "type": "bytes"
        }
      ],
      "name": "pieceStatus",
      "outputs": [
        {
          "internalType": "enum DaoDealClient.Status",
          "name": "",
          "type": "uint8"
        }
      ],
      "stateMutability": "view",
      "type": "function"
    },
    {
      "inputs": [],
      "name": "renounceOwnership",
      "outputs": [],
      "stateMutability": "nonpayable",
      "type": "function"
    },
    {
      "inputs": [
        {
          "internalType": "address",
          "name": "newOwner",
          "type": "address"
        }
      ],
      "name": "transferOwnership",
      "outputs": [],
      "stateMutability": "nonpayable",
      "type": "function"
    },
    {
      "inputs": [
        {
          "internalType": "bytes",
          "name": "pieceCid",
          "type": "bytes"
        }
      ],
      "name": "updateActivationStatus",
      "outputs": [],
      "stateMutability": "nonpayable",
      "type": "function"
    },
    {
      "inputs": [
        {
          "internalType": "address",
          "name": "client",
          "type": "address"
        },
        {
          "internalType": "uint256",
          "name": "value",
          "type": "uint256"
        }
      ],
      "name": "withdrawBalance",
      "outputs": [
        {
          "internalType": "uint256",
          "name": "",
          "type": "uint256"
        }
      ],
      "stateMutability": "nonpayable",
      "type": "function"
    }
  ],
  "bytecode": "0x60806040523480156200001157600080fd5b506200001d3362000023565b62000073565b600080546001600160a01b038381166001600160a01b0319831681178455604051919092169283917f8be0079c531659141344cd1fd0a4f28419497f9722a3daafe3b4186f6b6457e09190a35050565b615aeb80620000836000396000f3fe608060405234801561001057600080fd5b50600436106101a25760003560e01c8063868e10c4116100ee578063be965ce711610097578063f2fde38b11610071578063f2fde38b14610442578063f44a890314610455578063f4b2e4d814610475578063f82704f01461048857600080fd5b8063be965ce714610401578063d91921ed1461041c578063dd27fe901461042f57600080fd5b8063a6d1b7b8116100c8578063a6d1b7b814610389578063b34ba252146103cc578063bad79de9146103d757600080fd5b8063868e10c4146103365780638da5cb5b1461035857806396925ae61461036957600080fd5b80634634aed511610150578063662637351161012a57806366263735146102f9578063715018a61461030e57806378133bb21461031657600080fd5b80634634aed51461028f5780634e8a3ca4146102af5780636067f454146102ee57600080fd5b80631adf7eb1116101815780631adf7eb114610224578063297ab4861461025f57806329aa3d2a1461026757600080fd5b8062706790146101a75780630a0e0c91146101c85780630cf20cc914610204575b600080fd5b6101b2639d8b067881565b6040516101bf9190613db1565b60405180910390f35b6101b26101d6366004613eb7565b600581805160208101820180518482526020830160208501209152546001600160401b031693508492505050565b610217610212366004613f32565b6104a9565b6040516101bf9190613f75565b610251610232366004613f83565b6001602052806000526040600020805460019091015490915060ff1682565b6040516101bf929190613fac565b600254610217565b61028273ff0000000000000000000000000000000000000581565b6040516101bf9190613fd0565b6102a261029d366004613f83565b61052a565b6040516101bf919061403a565b6102516102bd366004613eb7565b600381805160208101820180518482526020830160208501209152805460019091015490945060ff16925084915050565b6101b263f98c996681565b61030c610307366004613eb7565b61054e565b005b61030c61063f565b610329610324366004614095565b610653565b6040516101bf9190614108565b610349610344366004614133565b610743565b6040516101bf939291906141a9565b6000546001600160a01b0316610282565b61037c610377366004613f83565b6107fe565b6040516101bf919061431c565b6103bf610397366004613eb7565b6006818051602081018201805184825260208301602085012091525460ff1693508492505050565b6040516101bf9190614371565b6101b263de180de381565b6103ea6103e5366004613f83565b610abe565b6040516101bf9b9a9998979695949392919061437f565b61028273ff0000000000000000000000000000000000000781565b61030c61042a366004613f83565b610d37565b61021761043d36600461444b565b610d54565b61030c610450366004614485565b610fa4565b610468610463366004614095565b610fdb565b6040516101bf91906144c9565b6102a2610483366004613f83565b61103a565b61049b610496366004613eb7565b611122565b6040516101bf9291906144d7565b60006104b36111dd565b600060405180604001604052806104c986611207565b81526020016104d785611250565b9052905060006104e68261129c565b90506000806104f4836112e6565b915091508061051e5760405162461bcd60e51b81526004016105159061457a565b60405180910390fd5b50925050505b92915050565b606060006105378361137d565b905061054781610140015161168d565b9392505050565b600060058260405161056091906145b2565b9081526020016040518091039020546001600160401b0316116105955760405162461bcd60e51b81526004016105159061461b565b60006105c76005836040516105aa91906145b2565b9081526020016040518091039020546001600160401b03166116ea565b90506000816020015160070b131561061c5760046006836040516105eb91906145b2565b9081526020016040518091039020805460ff191660018360048111156106135761061361432d565b02179055505050565b6000815160070b131561063b5760036006836040516105eb91906145b2565b5050565b6106476111dd565b610651600061173d565b565b61066e60405160408082019052606081526000602082015290565b6004838360405161068092919061463e565b90815260200160405180910390206040518060400160405290816000820180546106a990614661565b80601f01602080910402602001604051908101604052809291908181526020018280546106d590614661565b80156107225780601f106106f757610100808354040283529160200191610722565b820191906000526020600020905b81548152906001019060200180831161070557829003601f168201915b50505091835250506001919091015460ff1615156020909101529392505050565b60008060608082639d8b0677196001600160401b0389160161079657610768866117a7565b60006107746001611992565b90506107818160016119b2565b61078a816119c9565b925060519150506107ee565b63f98c9965196001600160401b038916016107b9576107b4866119f6565b6107ee565b63de180de2196001600160401b038916016107d6576107b4611bba565b60405162461bcd60e51b8152600401610515906146e1565b6000989097509095509350505050565b610806613bd4565b60028281548110610819576108196146f1565b90600052602060002090600a02016040518061016001604052908160008201805461084390614661565b80601f016020809104026020016040519081016040528092919081815260200182805461086f90614661565b80156108bc5780601f10610891576101008083540402835291602001916108bc565b820191906000526020600020905b81548152906001019060200180831161089f57829003601f168201915b505050918352505060018201546001600160401b0381166020830152600160401b900460ff16151560408201526002820180546060909201916108fe90614661565b80601f016020809104026020016040519081016040528092919081815260200182805461092a90614661565b80156109775780601f1061094c57610100808354040283529160200191610977565b820191906000526020600020905b81548152906001019060200180831161095a57829003601f168201915b50505091835250506003820154600781810b6020840152600160401b909104810b6040808401919091526004840154606084015260058401546080840152600684015460a0840152908301546001600160401b031660c083015260e0909101906008830190518060800160405290816000820180546109f590614661565b80601f0160208091040260200160405190810160405280929190818152602001828054610a2190614661565b8015610a6e5780601f10610a4357610100808354040283529160200191610a6e565b820191906000526020600020905b815481529060010190602001808311610a5157829003601f168201915b5050509183525050600191909101546001600160401b038116602083015260ff600160401b8204811615156040840152690100000000000000000090910416151560609091015290525092915050565b60028181548110610ace57600080fd5b906000526020600020600a9091020180549091508190610aed90614661565b80601f0160208091040260200160405190810160405280929190818152602001828054610b1990614661565b8015610b665780601f10610b3b57610100808354040283529160200191610b66565b820191906000526020600020905b815481529060010190602001808311610b4957829003601f168201915b50505050600183015460028401805493946001600160401b03831694600160401b90930460ff16935091610b9990614661565b80601f0160208091040260200160405190810160405280929190818152602001828054610bc590614661565b8015610c125780601f10610be757610100808354040283529160200191610c12565b820191906000526020600020905b815481529060010190602001808311610bf557829003601f168201915b505050506003830154600484015460058501546006860154600780880154969785820b97600160401b90960490910b95509293919290916001600160401b03169060088101604051806080016040529081600082018054610c7290614661565b80601f0160208091040260200160405190810160405280929190818152602001828054610c9e90614661565b8015610ceb5780601f10610cc057610100808354040283529160200191610ceb565b820191906000526020600020905b815481529060010190602001808311610cce57829003601f168201915b5050509183525050600191909101546001600160401b038116602083015260ff600160401b8204811615156040840152690100000000000000000090910416151560609091015290508b565b610d3f6111dd565b610d51610d4b30611207565b82611c24565b50565b6000610d5e6111dd565b60026006610d6c8480614707565b604051610d7a92919061463e565b90815260200160405180910390205460ff166004811115610d9d57610d9d61432d565b1480610de5575060036006610db28480614707565b604051610dc092919061463e565b90815260200160405180910390205460ff166004811115610de357610de361432d565b145b15610e025760405162461bcd60e51b8152600401610515906147bf565b600280546001810182556000918252908390829060209020600a90910201610e2a8282614cc2565b50506000423383604051602001610e4393929190614cf4565b6040516020818303038152906040528051906020012090506040516040808201815283825260016020808401829052600085815291905220815181556020820151600191909101805460ff19169115159190911790555060405160408082019052818152600160208201526003610eba8680614707565b604051610ec892919061463e565b90815260200160405180910390208151815560208201516001918201805460ff191691151591909117905590506006610f018680614707565b604051610f0f92919061463e565b9081526020016040518091039020805460ff19166001836004811115610f3757610f3761432d565b0217905550610f4c6060850160408601614d36565b1515817ffd6419d07e4c269e58d0c63969756c2124155b4a8d6dd08b8cd46e3a9acbf625610f806040880160208901614d57565b8760c00135604051610f93929190614d78565b60405180910390a39150505b919050565b610fac6111dd565b6001600160a01b038116610fd25760405162461bcd60e51b815260040161051590614ded565b610d518161173d565b610ff5604051604080820190526000808252602082015290565b6003838360405161100792919061463e565b9081526020016040518091039020604051604081810190528154815260019091015460ff16151560208201529392505050565b606060006110478361137d565b9050611051613c6e565b604051602081016040528083519052815260208201516001600160401b0316602082015260408201511515604082015261108a30611207565b60608201526110996000611c70565b6080820152604051806040016040528083606001518152600160209091015260a0820152608082015160070b60c082015260a082015160070b60e08201526110e460c0830151611250565b6101008201526110f760e0830151611250565b61012082015261110b610100830151611250565b61014082015261111a81611cc8565b949350505050565b600481805160208101820180518482526020830160208501209152805490945084935061115192509050614661565b80601f016020809104026020016040519081016040528092919081815260200182805461117d90614661565b80156111ca5780601f1061119f576101008083540402835291602001916111ca565b820191906000526020600020905b8154815290600101906020018083116111ad57829003601f168201915b5050506001909301549192505060ff1682565b6000546001600160a01b031633146106515760405162461bcd60e51b815260040161051590614e32565b61121b604051602081016040526060815290565b6040518060200160405280836040516020016112379190614e42565b6040516020818303038152906040528152509050919050565b61126b60405160408082019052606081526000602082015290565b6000611278836000611ee5565b90506040516040808201905280825181526020018260200151151590529392505050565b6112b760405160408082019052606081526000602082015290565b60006112c283611f36565b905060006112db60056387ed0a64605185600080611fcd565b905061111a816120dc565b600080826020015115611325576040517f83041cea00000000000000000000000000000000000000000000000000000000815260040160405180910390fd5b60006113346000196000611ee5565b9050600061134785518660200151612170565b905061135381836121a2565b1561136657506000946001945092505050565b805161137190614e87565b95600095509350505050565b611385613bd4565b6000828152600160205260408120604051604080820190528154815260019091015460ff16151560208201908152909150516113d35760405162461bcd60e51b815260040161051590614efe565b60028151815481106113e7576113e76146f1565b90600052602060002090600a02016040518061016001604052908160008201805461141190614661565b80601f016020809104026020016040519081016040528092919081815260200182805461143d90614661565b801561148a5780601f1061145f5761010080835404028352916020019161148a565b820191906000526020600020905b81548152906001019060200180831161146d57829003601f168201915b505050918352505060018201546001600160401b0381166020830152600160401b900460ff16151560408201526002820180546060909201916114cc90614661565b80601f01602080910402602001604051908101604052809291908181526020018280546114f890614661565b80156115455780601f1061151a57610100808354040283529160200191611545565b820191906000526020600020905b81548152906001019060200180831161152857829003601f168201915b50505091835250506003820154600781810b6020840152600160401b909104810b6040808401919091526004840154606084015260058401546080840152600684015460a0840152908301546001600160401b031660c083015260e0909101906008830190518060800160405290816000820180546115c390614661565b80601f01602080910402602001604051908101604052809291908181526020018280546115ef90614661565b801561163c5780601f106116115761010080835404028352916020019161163c565b820191906000526020600020905b81548152906001019060200180831161161f57829003601f168201915b5050509183525050600191909101546001600160401b038116602083015260ff600160401b820481161515604084015269010000000000000000009091041615156060909101529052509392505050565b6060600061169b6040611992565b90506116a88160046121cc565b6116b4835182906121d8565b6116c3836020015182906121f6565b6116d2836040015182906119b2565b6116e1836060015182906119b2565b610547816119c9565b611704604051604080820190526000808252602082015290565b6000611718836001600160401b0316612202565b905060006117326005639904f2ff60518560006001611fcd565b905061111a8161223a565b600080546001600160a01b038381167fffffffffffffffffffffffff0000000000000000000000000000000000000000831681179093551690817f8be0079c531659141344cd1fd0a4f28419497f9722a3daafe3b4186f6b6457e060405160405180910390a35050565b3373ff00000000000000000000000000000000000005146117da5760405162461bcd60e51b815260040161051590614f68565b60006117e5826122a4565b905060006117f68260200151612306565b90506000815151905060038160405161180f91906145b2565b90815260200160405180910390206001015460ff166118405760405162461bcd60e51b815260040161051590614fd2565b60048160405161185091906145b2565b90815260200160405180910390206001015460ff16156118825760405162461bcd60e51b81526004016105159061503c565b60006118ab60038360405161189791906145b2565b90815260200160405180910390205461137d565b90508060400151151583604001511515146118d85760405162461bcd60e51b815260040161051590615080565b6000806118e98561010001516112e6565b91509150801561190b5760405162461bcd60e51b815260040161051590615110565b60008061191c8761014001516112e6565b91509150801561193e5760405162461bcd60e51b815260040161051590615110565b8460c001518411156119625760405162461bcd60e51b81526004016105159061517a565b8461010001518211156119875760405162461bcd60e51b8152600401610515906151e4565b505050505050505050565b61199a613d6d565b6119a5815183612461565b5060006020820152919050565b61063b82826119c25760146124de565b60156124de565b60608160200151156119ed5760405162461bcd60e51b815260040161051590615228565b81515192915050565b3373ff0000000000000000000000000000000000000514611a295760405162461bcd60e51b815260040161051590614f68565b6000611a34826124ed565b90506000611a428251612306565b90506003815151604051611a5691906145b2565b90815260200160405180910390206001015460ff16611a875760405162461bcd60e51b815260040161051590614fd2565b6004815151604051611a9991906145b2565b90815260200160405180910390206001015460ff1615611acb5760405162461bcd60e51b81526004016105159061503c565b6040518060400160405280826080015151815260016020909101526004825151604051611af891906145b2565b908152602001604051809103902081518190611b149082615238565b506020820151600191909101805460ff19169115159190911790555060208201516005825151604051611b4791906145b2565b9081526020016040518091039020805467ffffffffffffffff19166001600160401b039290921691909117905560026006825151604051611b8891906145b2565b9081526020016040518091039020805460ff19166001836004811115611bb057611bb061432d565b0217905550505050565b3373ff0000000000000000000000000000000000000714611bed5760405162461bcd60e51b81526004016105159061536f565b7f10aa319ed8cad9bceb033c0c2788c4ae17469ac844e4c6e2c2e20e74ca8a7be8604051611c1a906153b3565b60405180910390a1565b6000611c2f83612559565b90506000611c486005633105f1a6605185876000611fcd565b9050805115611c6a57604051630e74990760e01b815260040160405180910390fd5b50505050565b611c84604051602081016040526060815290565b6000611c8f83612582565b905060405160208101604052808251604051602001611cae91906153d0565b604051602081830303815290604052815250915050919050565b6060600080611cdb8461010001516125de565b90506000611ced8561012001516125de565b90506000611cff8661014001516125de565b9050611d0b600b6126fc565b611d1590856153fd565b9350611d2286515161274a565b611d2c90856153fd565b9350611d4486602001516001600160401b03166126fc565b611d4e90856153fd565b9350611d58612762565b611d6290856153fd565b9350611d72866060015151612773565b611d7c90856153fd565b9350611d8c866080015151612773565b611d9690856153fd565b9350611da68660a0015151612773565b611db090856153fd565b9350611dbf8660c00151612781565b611dc990856153fd565b9350611dd88660e00151612781565b611de290856153fd565b9350611ded83612773565b611df790856153fd565b9350611e0282612773565b611e0c90856153fd565b9350611e1781612773565b611e2190856153fd565b93506000611e2e85611992565b9050611e3b81600b6121cc565b611e4887515182906127c4565b611e57876020015182906121f6565b611e66876040015182906119b2565b611e768760600151518290612812565b611e868760800151518290612812565b611e958760a00151829061281f565b611ea48760c001518290612840565b611eb38760e001518290612840565b611ebd8185612812565b611ec78184612812565b611ed18183612812565b611eda816119c9565b979650505050505050565b611f0b604051806060016040528060608152602001600015158152602001600081525090565b61054783604051602001611f1f9190615410565b60405160208183030381529060405283600061284a565b6060600080611f4884602001516125de565b9050611f5460026126fc565b611f5e90836153fd565b9150611f6b845151612773565b611f7590836153fd565b9150611f8081612773565b611f8a90836153fd565b91506000611f9783611992565b9050611fa48160026121cc565b611fb18551518290612812565b611fbb8183612812565b611fc4816119c9565b95945050505050565b6060611fed73fe000000000000000000000000000000000000058461291f565b60008073fe00000000000000000000000000000000000005888686612013576000612016565b60015b8a8a8e60405160200161202e9695949392919061542e565b60405160208183030381529060405260405161204a91906145b2565b600060405180830381855af49150503d8060008114612085576040513d603f01601f191681016040523d815291503d6000602084013e61208a565b606091505b5091509150816120c6576040517f8a7db5bf00000000000000000000000000000000000000000000000000000000815260040160405180910390fd5b6120cf81612999565b9998505050505050505050565b6120f760405160408082019052606081526000602082015290565b6060600080845111156121265761210e8482612aa2565b90925090506000825111156121265761111a82612c15565b60405160408082019052806000604051818152601f19601f830116810160200160405290801561215d576020820181803683370190505b5081526000602090910152949350505050565b612196604051806060016040528060608152602001600015158152602001600081525090565b6105478383600061284a565b6000806121b184846001612d7b565b9050806001146121c257600061111a565b6001949350505050565b61063b82600483612ebb565b6121e58260038351612ec2565b6121f181835190612fdf565b505050565b61063b82600083612ec2565b60606000612218836001600160401b03166126fc565b9050600061222582611992565b905061223181856121f6565b61111a816119c9565b612254604051604080820190526000808252602082015290565b6000806122618482613006565b925090506002811461227557612275615484565b61227f8483613052565b60079190910b845291506122938483613052565b5060070b6020840152509092915050565b6122be604051604080820190526060808252602082015290565b6000806122cb8482613006565b92509050600281146122df576122df615484565b6122e98483612aa2565b90845291506122f88483612aa2565b506020840152509092915050565b61230e613c6e565b600080606061231d8583613006565b93509150600b821461233157612331615484565b61233b8584612aa2565b93509050604051602081016040528181528452612358858461306c565b6001600160401b039091166020860152925061237485846130ad565b901515604086015292506123888584612aa2565b9350905061239581613118565b60608501526123a48584612aa2565b935090506123b181613118565b60808501526123c0858461317c565b60a086019190915292506123d48584613052565b60079190910b60c086015292506123eb8584613052565b60079190910b60e0860152925060606124048685612aa2565b9450905061241181612c15565b61010086015260606124238786612aa2565b9550905061243081612c15565b61012087015260606124428887612aa2565b9650905061244f81612c15565b61014088015250949695505050505050565b61247c60405160408082019052606081526000602082015290565b6124876020836154b0565b156124af576124976020836154b0565b6124a29060206154c4565b6124ac90836153fd565b91505b6020830182905260405180845260008152828101602001818110156124d357600080fd5b604052509192915050565b6121f160e082178351906132d6565b61250860405160408082019052606081526000602082015290565b6000806125158482613006565b925090506002811461252957612529615484565b6125338483612aa2565b9084529150612542848361306c565b506001600160401b03166020840152509092915050565b606060006125678351612773565b9050600061257482611992565b905061223184518290612812565b61259d60405160408082019052606081526000602082015290565b6701ffffffffffffff600783901c1691607f1660008390036125ca576125c382826132d6565b5050919050565b6125d782608083176132d6565b505061259d565b606060008251516125f09060016153fd565b6001600160401b0381111561260757612607613dbf565b604051818152601f19601f8301168101602001604052908015612631576020820181803683370190505b5090508260200151151560011461264957600061264f565b600160f81b5b81600081518110612662576126626146f1565b60200101906001600160f81b031916908160001a905350600160005b8451518110156126f3578451818151811061269b5761269b6146f1565b60200101516001600160f81b0319168383815181106126bc576126bc6146f1565b60200101906001600160f81b031916908160001a905350816126dd816154d7565b92505080806126eb906154d7565b91505061267e565b50909392505050565b60006017821161270e57506001919050565b60ff821161271e57506002919050565b61ffff821161272f57506003919050565b63ffffffff821161274257506005919050565b506009919050565b6000815161275860026126fc565b61052491906153fd565b600061276e60016126fc565b905090565b6000815161275883516126fc565b600081600781900b82136127a157610547816001600160401b03166126fc565b6105476127b0826000196154ea565b6001600160401b03166126fc565b50919050565b6127d160d88351906132d6565b506127df602a8351906132d6565b5061063b816040516020016127f4919061552d565b6040516020818303038152906040528361281290919063ffffffff16565b6121e58260028351612ec2565b80602001516128345761063b81518390612812565b61063b815183906121d8565b61063b8282613349565b612870604051806060016040528060608152602001600015158152602001600081525090565b602084018451600059601f8316156001811461289e57601f84166020908103808601845283010192506128a8565b6020820192508382525b508282848660046101c2fa506020815101810160405280515b602081146128ef576000602083015114600181146128df57506128ef565b60208301925050601f19016128c1565b815284525050506020810183905281156129095781612913565b6129138151613377565b60408201529392505050565b478181101561295e5780826040517f8f0f4206000000000000000000000000000000000000000000000000000000008152600401610515929190615542565b823f151580611c6a576040517f64d954b000000000000000000000000000000000000000000000000000000000815260040160405180910390fd5b6060600080806020850185518101906129b291906155c6565b919450925090506001600160401b0382166129ec578051156129e757604051630e74990760e01b815260040160405180910390fd5b612a68565b6001600160401b03821660511480612a0d57506001600160401b0382166071145b15612a345780516000036129e757604051630e74990760e01b815260040160405180910390fd5b816040517ff1f6bced0000000000000000000000000000000000000000000000000000000081526004016105159190613db1565b821561111a57826040517fd4bb66710000000000000000000000000000000000000000000000000000000081526004016105159190613f75565b60606000806000612ab386866133b5565b96509092506001600160401b0316905060ff821660061480612ad8575060ff82166002145b612af45760405162461bcd60e51b815260040161051590615680565b60051960ff831601612b2d57612b0a86866133b5565b96509092506001600160401b0316905060ff8216600214612b2d57612b2d615484565b6000612b3982876153fd565b90506000826001600160401b03811115612b5557612b55613dbf565b604051818152601f19601f8301168101602001604052908015612b7f576020820181803683370190505b5090506000875b83811015612bf857898181518110612ba057612ba06146f1565b60200101516001600160f81b031916838381518110612bc157612bc16146f1565b60200101906001600160f81b031916908160001a90535081612be2816154d7565b9250508080612bf0906154d7565b915050612b86565b5081612c04858a6153fd565b9650965050505050505b9250929050565b612c3060405160408082019052606081526000602082015290565b8151600003612c6857604051806040016040528060405160408082019052600181526000602080830182905291835291015292915050565b600060018351612c7891906154c4565b6001600160401b03811115612c8f57612c8f613dbf565b604051818152601f19601f8301168101602001604052908015612cb9576020820181803683370190505b509050600083600081518110612cd157612cd16146f1565b60200101516001600160f81b031916600160f81b03612cee575060015b60015b8451811015612d6057848181518110612d0c57612d0c6146f1565b60200101516001600160f81b03191683612d276001846154c4565b81518110612d3757612d376146f1565b60200101906001600160f81b031916908160001a90535080612d58816154d7565b915050612cf1565b50604051604080820190529182521515602082015292915050565b600060018215612df45784602001518015612d97575083602001515b15612da55750600019612df4565b8460200151158015612dbd5750836020015115156001145b15612dcc576001915050610547565b846020015115156001148015612de457508360200151155b15612df457600019915050610547565b836040015185604001511115612e0b579050610547565b846040015184604001511115612e2f57612e2781600019615690565b915050610547565b600080808080895151905060208a510194506020895101935060005b81811015612eaa5780860151935080850151925082841115612e765786975050505050505050610547565b83831115612e9857612e8a87600019615690565b975050505050505050610547565b612ea36020826153fd565b9050612e4b565b5060009a9950505050505050505050565b6121f18383835b6017816001600160401b031611612ee857611c6a60e0600584901b1682178451906132d6565b60ff816001600160401b031611612f2957612f106018611fe0600585901b16178451906132d6565b50611c6a6001600160401b038216600185519190613532565b61ffff816001600160401b031611612f6b57612f526019611fe0600585901b16178451906132d6565b50611c6a6001600160401b038216600285519190613532565b63ffffffff816001600160401b031611612faf57612f96601a611fe0600585901b16178451906132d6565b50611c6a6001600160401b038216600485519190613532565b612fc6601b611fe0600585901b16178451906132d6565b50611c6a6001600160401b038216600885519190613532565b612ffa60405160408082019052606081526000602082015290565b610547838384516135c1565b60008060008061301686866133b5565b96509092506001600160401b0316905060ff82166004146130495760405162461bcd60e51b8152600401610515906156fc565b95939450505050565b60008080613060858561369b565b90969095509350505050565b60008060008061307c86866133b5565b96509092506001600160401b0316905060ff8216156130495760405162461bcd60e51b815260040161051590615766565b6000806000806130bd86866133b5565b96509092506001600160401b0316905060ff82166007146130f05760405162461bcd60e51b8152600401610515906157aa565b60158114806130ff5750601481145b61310b5761310b615484565b6014141595939450505050565b61312c604051602081016040526060815290565b6000604051602081016040528381529050613146816136ea565b610524576040517fe6c4247b00000000000000000000000000000000000000000000000000000000815260040160405180910390fd5b61319760405160408082019052606081526000602082015290565b60008060006131a686866133b5565b96509092506001600160401b0316905060ff8216600214806131cb575060ff82166003145b6131e75760405162461bcd60e51b815260040161051590615814565b60006131f382876153fd565b90506000826001600160401b0381111561320f5761320f613dbf565b604051818152601f19601f8301168101602001604052908015613239576020820181803683370190505b5090506000875b838110156132b25789818151811061325a5761325a6146f1565b60200101516001600160f81b03191683838151811061327b5761327b6146f1565b60200101906001600160f81b031916908160001a9053508161329c816154d7565b92505080806132aa906154d7565b915050613240565b506040516040808201905282815260ff86166003146020820152612c04858a6153fd565b6132f160405160408082019052606081526000602082015290565b6000835151905060006133058260016153fd565b9050846020015182106133265761332685613321836002615824565b613862565b8451602083820101858153815183111561333e578282525b509495945050505050565b60008160070b126133605761063b82600083612ec2565b61063b826001613372846000196154ea565b612ec2565b60006133828261387d565b1561338f57506000919050565b6000602083015190506133a1816138c6565b915060086020845103028201915050919050565b6000806000806133c58686613ac3565b90506133d26001866153fd565b94506007600582901c16601f8216601c81106134005760405162461bcd60e51b815260040161051590615896565b60188160ff16101561341e5790945060ff16925084915061352b9050565b8060ff1660180361347b5760006134358989613ac3565b90506134426001896153fd565b975060188160ff1610156134685760405162461bcd60e51b8152600401610515906158da565b9195505060ff16925084915061352b9050565b8060ff166019036134b55760006134928989613b11565b905061349f6002896153fd565b97509195505061ffff16925084915061352b9050565b8060ff16601a036134f15760006134cc8989613b52565b90506134d96004896153fd565b97509195505063ffffffff16925084915061352b9050565b8060ff16601b1461350457613504615484565b60006135108989613b93565b905061351d6008896153fd565b975091955090935085925050505b9250925092565b61354d60405160408082019052606081526000602082015290565b60008451519050600061356082856153fd565b9050856020015181111561357d5761357d86613321836002615824565b6000600161358d866101006159f8565b61359791906154c4565b9050865182810187831982511617815281518411156135b4578382525b5096979650505050505050565b6135dc60405160408082019052606081526000602082015290565b82518211156135ea57600080fd5b6000845151905060006135fd84836153fd565b9050856020015181111561361a5761361a86613321836002615824565b60008087518051856020830101935080851115613635578482525b505050602086015b6020861061367557805182526136546020836153fd565b91506136616020826153fd565b905061366e6020876154c4565b955061363d565b60001960208790036101000a018019825116818451161790925250959695505050505050565b6000806000806136ab86866133b5565b96509092506001600160401b0316905060ff8216600114806136ce575060ff8216155b6130495760405162461bcd60e51b815260040161051590615a61565b60008151600081518110613700576137006146f1565b60200101516001600160f81b03191660000361372357600a825151111592915050565b8151600081518110613737576137376146f1565b60200101516001600160f81b031916600160f81b148061379857508151600081518110613766576137666146f1565b60200101516001600160f81b0319167f0200000000000000000000000000000000000000000000000000000000000000145b156137a95781515160151492915050565b81516000815181106137bd576137bd6146f1565b60200101516001600160f81b0319167f0300000000000000000000000000000000000000000000000000000000000000036137fe5781515160311492915050565b8151600081518110613812576138126146f1565b60200101516001600160f81b0319167f040000000000000000000000000000000000000000000000000000000000000003613854576040825151111592915050565b610100825151111592915050565b6000825190506138728383612461565b50611c6a8382612fdf565b60008060208301815b84518110156138bb578151925082156138a457506000949350505050565b6020918201916138b490826153fd565b9050613886565b506001949350505050565b6000811560018114613aba57700100000000000000000000000000000000600160401b640100000000620100006101006010600460026000198b019081041790810417908104179081041790810417908104179081041790810417600101926040517ff8f9cbfae6cc78fbefe7cdc3a1793dfcf4f0e8bbd8cec470b6a28a7a5a3e1efd81527ff5ecf1b3e9debc68e1d9cfabc5997135bfb7a7a3938b7b606b5b4b3f2f1f0ffe60208201527ff6e4ed9ff2d6b458eadcdf97bd91692de2d4da8fd2d0ac50c6ae9a827252361660408201527fc8c0b887b0a8a4489c948c7f847c6125746c645c544c444038302820181008ff60608201527ff7cae577eec2a03cf3bad76fb589591debb2dd67e0aa9834bea6925f6a4a2e0e60808201527fe39ed557db96902cd38ed14fad815115c786af479b7e8324736353433727170760a08201527fc976c13bb96e881cb166a933a55e490d9d56952b8d4e801485467d236242260660c08201527f753a6d1b65325d0c552a4d1345224105391a310b29122104190a11030902010060e082015261010081016040527e818283848586878898a8b8c8d8e8f929395969799a9b9d9e9faaeb6bedeeff600160f81b8082880204818160ff0385015104600160ff1b86116101000201965060001985018516613ab0576001870196505b50505050506127be565b50600092915050565b6000613ad08260016153fd565b83511015613af05760405162461bcd60e51b815260040161051590615aa5565b828281518110613b0257613b026146f1565b602001015160f81c9392505050565b6000613b1e8260026153fd565b83511015613b3e5760405162461bcd60e51b815260040161051590615aa5565b60008260200184015160f01c949350505050565b6000613b5f8260046153fd565b83511015613b7f5760405162461bcd60e51b815260040161051590615aa5565b60008260200184015160e01c949350505050565b6000613ba08260086153fd565b83511015613bc05760405162461bcd60e51b815260040161051590615aa5565b60008260200184015160c01c949350505050565b6040518061016001604052806060815260200160006001600160401b0316815260200160001515815260200160608152602001600060070b8152602001600060070b815260200160008152602001600081526020016000815260200160006001600160401b03168152602001613c69604051608081016040908152606080835260006020840181905291830182905282015290565b905290565b604051806101600160405280613c8e604051602081016040526060815290565b815260200160006001600160401b03168152602001600015158152602001613cc0604051602081016040526060815290565b8152602001613cd9604051602081016040526060815290565b8152602001613cf960405160408082019052606081526000602082015290565b8152602001600060070b8152602001600060070b8152602001613d2d60405160408082019052606081526000602082015290565b8152602001613d4d60405160408082019052606081526000602082015290565b8152602001613c6960405160408082019052606081526000602082015290565b6040518060400160405280613d9360405160408082019052606081526000602082015290565b8152602001600081525090565b6001600160401b0381165b82525050565b602081016105248284613da0565b634e487b7160e01b600052604160045260246000fd5b601f19601f83011681018181106001600160401b0382111715613dfa57613dfa613dbf565b6040525050565b6000613e106000604051905090565b9050610f9f8282613dd5565b60006001600160401b03821115613e3557613e35613dbf565b601f19601f83011660200192915050565b82818337506000910152565b6000613e65613e6084613e1c565b613e01565b905082815260208101848484011115613e8057613e80600080fd5b613e8b848285613e46565b509392505050565b600082601f830112613ea757613ea7600080fd5b813561111a848260208601613e52565b600060208284031215613ecc57613ecc600080fd5b81356001600160401b03811115613ee557613ee5600080fd5b61111a84828501613e93565b60006001600160a01b038216610524565b613f0b81613ef1565b8114610d5157600080fd5b803561052481613f02565b80613f0b565b803561052481613f21565b60008060408385031215613f4857613f48600080fd5b6000613f548585613f16565b9250506020613f6585828601613f27565b9150509250929050565b80613dab565b602081016105248284613f6f565b600060208284031215613f9857613f98600080fd5b600061111a8484613f27565b801515613dab565b60408101613fba8285613f6f565b6105476020830184613fa4565b613dab81613ef1565b602081016105248284613fc7565b60005b83811015613ff9578082015183820152602001613fe1565b50506000910152565b6000614012826000815192915050565b808452602084019350614029818560208601613fde565b601f01601f19169290920192915050565b602080825281016105478184614002565b60008083601f84011261406057614060600080fd5b5081356001600160401b0381111561407a5761407a600080fd5b602083019150836001820283011115612c0e57612c0e600080fd5b600080602083850312156140ab576140ab600080fd5b82356001600160401b038111156140c4576140c4600080fd5b6140d08582860161404b565b92509250509250929050565b600060408301825184820385526140f38282614002565b9150506020830151613e8b6020860182613fa4565b6020808252810161054781846140dc565b6001600160401b038116613f0b565b803561052481614119565b60008060006060848603121561414b5761414b600080fd5b60006141578686614128565b935050602061416886828701614128565b92505060408401356001600160401b0381111561418757614187600080fd5b61419386828701613e93565b9150509250925092565b63ffffffff8116613dab565b606081016141b7828661419d565b6141c46020830185613da0565b8181036040830152611fc48184614002565b613dab8160070b90565b600060808301825184820385526141f78282614002565b915050602083015161420c6020860182613da0565b50604083015161421f6040860182613fa4565b506060830151613e8b6060860182613fa4565b600061016083018251848203855261424a8282614002565b915050602083015161425f6020860182613da0565b5060408301516142726040860182613fa4565b506060830151848203606086015261428a8282614002565b915050608083015161429f60808601826141d6565b5060a08301516142b260a08601826141d6565b5060c08301516142c560c0860182613f6f565b5060e08301516142d860e0860182613f6f565b506101008301516142ed610100860182613f6f565b50610120830151614302610120860182613da0565b50610140830151848203610140860152611fc482826141e0565b602080825281016105478184614232565b634e487b7160e01b600052602160045260246000fd5b60058110610d5157610d5161432d565b80610f9f81614343565b600061052482614353565b613dab8161435d565b602081016105248284614368565b6101608082528101614391818e614002565b90506143a0602083018d613da0565b6143ad604083018c613fa4565b81810360608301526143bf818b614002565b90506143ce608083018a6141d6565b6143db60a08301896141d6565b6143e860c0830188613f6f565b6143f560e0830187613f6f565b614403610100830186613f6f565b614411610120830185613da0565b81810361014083015261442481846141e0565b9d9c50505050505050505050505050565b600061016082840312156127be576127be600080fd5b60006020828403121561446057614460600080fd5b81356001600160401b0381111561447957614479600080fd5b61111a84828501614435565b60006020828403121561449a5761449a600080fd5b600061111a8484613f16565b6040820181516144b68482613f6f565b506020820151611c6a6020850182613fa4565b6040810161052482846144a6565b604080825281016144e88185614002565b90506105476020830184613fa4565b604881526000602082017f50726f626c656d7320636f6e76657274696e672077697468647261772062616c81527f616e636520696e746f2042696720496e742c206d617920636175736520616e2060208201527f6f766572666c6f77000000000000000000000000000000000000000000000000604082015291505b5060600190565b60208082528101610524816144f7565b600061459a826000815192915050565b6145a8818560208601613fde565b9290920192915050565b6000610547828461458a565b602481526000602082017f6e6f206465616c207075626c697368656420666f72207468697320706965636581527f2063696400000000000000000000000000000000000000000000000000000000602082015291505b5060400190565b60208082528101610524816145be565b6000614638838584613e46565b50500190565b600061111a82848661462b565b634e487b7160e01b600052602260045260246000fd5b60028104600182168061467557607f821691505b6020821081036127be576127be61464b565b603281526000602082017f7468652066696c65636f696e206d6574686f642074686174207761732063616c81527f6c6564206973206e6f742068616e646c6564000000000000000000000000000060208201529150614614565b6020808252810161052481614687565b634e487b7160e01b600052603260045260246000fd5b6000808335601e193685900301811261472257614722600080fd5b8084019250823591506001600160401b0382111561474257614742600080fd5b60208301925060018202360383131561475d5761475d600080fd5b509250929050565b602981526000602082017f6465616c2077697468207468697320706965636543696420616c72656164792081527f7075626c6973686564000000000000000000000000000000000000000000000060208201529150614614565b6020808252810161052481614765565b60006105246147db8381565b90565b6147e7836147cf565b81546008840282811b60001990911b908116901990911617825550505050565b60006121f18184846147de565b8181101561063b57614827600082614807565b600101614814565b601f8211156121f15761484d81600081815281906020902092915050565b6020601f850104810160208510156148625750805b6148746020601f860104830182614814565b5050505050565b826001600160401b0381111561489357614893613dbf565b61489d8254614661565b6148a882828561482f565b6000601f8311600181146148dc57600084156148c45750858201355b600019600886021c1981166002860217865550614942565b601f1984166148f686600081815281906020902092915050565b60005b8281101561491957888501358255602094850194600190920191016148f9565b8683101561493557600019601f88166008021c19858a01351682555b6001600288020188555050505b50505050505050565b6121f183838361487b565b6000813561052481614119565b60006001600160401b03835b81169019929092169190911792915050565b60006001600160401b038216610524565b61499b82614981565b6149a6818354614963565b8255505050565b801515613f0b565b60008135610524816149ad565b600068ff000000000000000061496f8460401b90565b6000811515610524565b6149eb826149d8565b6149a68183546149c2565b613f0b8160070b90565b60008135610524816149f6565b6000610524614a1f6147db8460070b90565b60070b90565b61499b82614a0d565b60006fffffffffffffffff000000000000000061496f8460401b90565b614a5482614a0d565b6149a6818354614a2e565b6000813561052481613f21565b60006000198361496f565b614a80826147cf565b6149a6818354614a6c565b60008235607e1936849003018112614aa557614aa5600080fd5b9190910192915050565b600069ff00000000000000000061496f8460481b90565b614acf826149d8565b6149a6818354614aaf565b8082614ae68180614707565b614af181838661494b565b50505050600181016020830180614b0781614956565b9050614b138184614992565b505050600181016040830180614b28816149b5565b9050614b3481846149e2565b505050600181016060830180614b49816149b5565b90506148748184614ac6565b61063b8282614ada565b8082614b6b8180614707565b614b7681838661494b565b50505050600181016020830180614b8c81614956565b9050614b988184614992565b505050600181016040830180614bad816149b5565b9050614bb981846149e2565b5050506002810160608301614bce8185614707565b614bd981838661494b565b50505050600381016080830180614bef81614a00565b9050614bfb8184614a25565b5050506003810160a0830180614c1081614a00565b9050614c1c8184614a4b565b5050506004810160c0830180614c3181614a5f565b9050614c3d8184614a77565b5050506005810160e0830180614c5281614a5f565b9050614c5e8184614a77565b50505060068101610100830180614c7481614a5f565b9050614c808184614a77565b50505060078101610120830180614c9681614956565b9050614ca28184614992565b505050600881016101408301614cb88185614a8b565b6148748184614b55565b61063b8282614b5f565b60006105248260601b90565b600061052482614ccc565b613dab614cef82613ef1565b614cd8565b6000614d008286613f6f565b602082019150614d108285614ce3565b601482019150614d208284613f6f565b506020019392505050565b8035610524816149ad565b600060208284031215614d4b57614d4b600080fd5b600061111a8484614d2b565b600060208284031215614d6c57614d6c600080fd5b600061111a8484614128565b60408101614d868285613da0565b6105476020830184613f6f565b602681526000602082017f4f776e61626c653a206e6577206f776e657220697320746865207a65726f206181527f646472657373000000000000000000000000000000000000000000000000000060208201529150614614565b6020808252810161052481614d93565b60208082527f4f776e61626c653a2063616c6c6572206973206e6f7420746865206f776e6572910190815260005b5060200190565b6020808252810161052481614dfd565b7f040a00000000000000000000000000000000000000000000000000000000000081526002016000614e748284614ce3565b50601401919050565b6000610524825190565b6000614e97826000815192915050565b60208301614ea481614e7d565b925060208210156125c357614ec0600019836020036008021b90565b9092169392505050565b601881526000602082017f70726f706f73616c4964206e6f7420617661696c61626c65000000000000000081529150614e2b565b6020808252810161052481614eca565b602781526000602082017f6d73672e73656e646572206e6565647320746f206265206d61726b657420616381527f746f72206630350000000000000000000000000000000000000000000000000060208201529150614614565b6020808252810161052481614f0e565b602a81526000602082017f706965636520636964206d757374206265206164646564206265666f7265206181527f7574686f72697a696e670000000000000000000000000000000000000000000060208201529150614614565b6020808252810161052481614f78565b603b81526000602082017f6465616c206661696c656420706f6c69637920636865636b3a2070726f76696481527f657220616c726561647920636c61696d6564207468697320636964000000000060208201529150614614565b6020808252810161052481614fe2565b601c81526000602082017f76657269666965645f6465616c20706172616d206d69736d617463680000000081529150614e2b565b602080825281016105248161504c565b604181526000602082017f49737375657320636f6e76657274696e672075696e7432353620746f2042696781527f496e742c206d6179206e6f7420686176652061636375726174652076616c756560208201527f730000000000000000000000000000000000000000000000000000000000000060408201529150614573565b6020808252810161052481615090565b602981526000602082017f73746f726167652070726963652067726561746572207468616e20726571756581527f737420616d6f756e74000000000000000000000000000000000000000000000060208201529150614614565b6020808252810161052481615120565b602d81526000602082017f636c69656e7420636f6c6c61746572616c2067726561746572207468616e207281527f65717565737420616d6f756e740000000000000000000000000000000000000060208201529150614614565b602080825281016105248161518a565b600c81526000602082017f496e76616c69642043424f52000000000000000000000000000000000000000081529150614e2b565b60208082528101610524816151f4565b615246826000815192915050565b6001600160401b0381111561525d5761525d613dbf565b6152678254614661565b61527282828561482f565b6020601f8311600181146152a7576000841561528f578287015190505b600019600886021c198116600286021786555061530d565b601f1984166152c186600081815281906020902092915050565b60005b828110156152e457848901518255602094850194600190920191016152c4565b868310156153005784890151600019601f89166008021c191682555b6001600288020188555050505b505050505050565b602881526000602082017f6d73672e73656e646572206e6565647320746f2062652064617461636170206181527f63746f722066303700000000000000000000000000000000000000000000000060208201529150614614565b6020808252810161052481615315565b601181526000602082017f446174614361702052656365697665642100000000000000000000000000000081529150614e2b565b602080825281016105248161537f565b60008082525b5060010190565b60006153db826153c3565b9150610547828461458a565b634e487b7160e01b600052601160045260246000fd5b80820180821115610524576105246153e7565b600061541c8284613f6f565b50602001919050565b613dab81614981565b60c0810161543c8289613da0565b6154496020830188613f6f565b6154566040830187613da0565b6154636060830186613da0565b81810360808301526154758185614002565b9050611eda60a0830184615425565b634e487b7160e01b600052600160045260246000fd5b634e487b7160e01b600052601260045260246000fd5b6000826154bf576154bf61549a565b500690565b81810381811115610524576105246153e7565b600060001982036153c9576153c96153e7565b60006154f68260070b90565b91506155028360070b90565b925050818103677fffffffffffffff198112677fffffffffffffff82131715610524576105246153e7565b6000808252600182019150610547828461458a565b60408101614d868285613f6f565b60008151905061052481613f21565b60008151905061052481614119565b600061557c613e6084613e1c565b90508281526020810184848401111561559757615597600080fd5b613e8b848285613fde565b600082601f8301126155b6576155b6600080fd5b815161111a84826020860161556e565b6000806000606084860312156155de576155de600080fd5b60006155ea8686615550565b93505060206155fb8682870161555f565b92505060408401516001600160401b0381111561561a5761561a600080fd5b614193868287016155a2565b602e81526000602082017f696e76616c6964206d616a20286578706563746564204d616a546167206f722081527f4d616a42797465537472696e672900000000000000000000000000000000000060208201529150614614565b6020808252810161052481615626565b8181028060008312600160ff1b851416156156ad576156ad6153e7565b82820584148315176156c1576156c16153e7565b5092915050565b601f81526000602082017f696e76616c6964206d616a20286578706563746564204d616a4172726179290081529150614e2b565b60208082528101610524816156c8565b602581526000602082017f696e76616c6964206d616a20286578706563746564204d616a556e7369676e6581527f64496e742900000000000000000000000000000000000000000000000000000060208201529150614614565b602080825281016105248161570c565b601f81526000602082017f696e76616c6964206d616a20286578706563746564204d616a4f74686572290081529150614e2b565b6020808252810161052481615776565b603581526000602082017f696e76616c6964206d616a20286578706563746564204d616a4279746553747281527f696e67206f72204d616a54657874537472696e6729000000000000000000000060208201529150614614565b60208082528101610524816157ba565b8181028082158382048514176156c1576156c16153e7565b602581526000602082017f63616e6e6f742068616e646c652068656164657273207769746820657874726181527f203e20323700000000000000000000000000000000000000000000000000000060208201529150614614565b602080825281016105248161583c565b600c81526000602082017f696e76616c69642063626f72000000000000000000000000000000000000000081529150614e2b565b60208082528101610524816158a6565b80825b600185111561592957808604811115615908576159086153e7565b600185161561591657908102905b80026159228560011c90565b94506158ed565b94509492505050565b60008261594157506001610547565b8161594e57506000610547565b8160018114615964576002811461596e5761599b565b6001915050610547565b60ff84111561597f5761597f6153e7565b8360020a915084821115615995576159956153e7565b50610547565b5060208310610133831016604e8410600b84101617156159ce575081810a838111156159c9576159c96153e7565b610547565b6159db84848460016158ea565b925090508184048111156159f1576159f16153e7565b0292915050565b60006105476000198484615932565b603581526000602082017f696e76616c6964206d616a20286578706563746564204d616a5369676e65644981527f6e74206f72204d616a556e7369676e6564496e7429000000000000000000000060208201529150614614565b6020808252810161052481615a07565b601481526000602082017f736c6963696e67206f7574206f662072616e676500000000000000000000000081529150614e2b565b6020808252810161052481615a7156fea264697066735822122039c60b65fab2300ada31aea3257a95a38f69168cc981125a80a2ff547f4e756064736f6c63430008110033",
  "linkReferences": {},
  "deployedLinkReferences": {}
}